:020000040000fa
:080000000002040000000000f2
:020000040000fa
:100400000fe223000e7f24000e0188000000000090
:100410000c000700602c22002100200011000700c2
:10042000000020000000e000020032000000020096
:100430000000000024410200020000000040da0039
:100440000000fe004440a900a08325000000e00059
:100450000300320000002000a00188004440a800f2
:100460000000060091018800800078000000eb0089
:1004700015003700e280400032a0b4009101ba00bc
:10048000e280400032a0b4009102ba00e280400055
:1004900032a0b4000002eb00472bde00f507b200eb
:1004a000602ce10004003a000059eb008301e900f0
:1004b000fdff3e00040037006128e100010032002a
:1004c0000082eb00040007001101ba000200e00006
:1004d000e8ff3a00000006003159ba008301e90044
:1004e0000c0032002159ba008301e90008003200f3
:1004f0000400e00003003a00e280400032a0b400b3
:10050000f5ff370011d9ba008301e900faff3a007c
:100510008100e800e180400032a0b4000000060045
:100520002cde0400010000007ce00400010000005b
:100530004ee404000100000000e10400010000009e
:10054000aee30400010000008c650400020000001e
:10055000b6630400020000005a60040002000000bc
:100560009a6204000200000010670400020000000c
:1005700084660400020000006268040002000000bb
:10058000d65a040002000000465c0400020000008d
:10059000a65d040002000000005f040002000000ed
:1005a00030590400020000000040da000000fe00a4
:1005b000889fbe0080047800d06d81000000e000bc
:1005c00003003a00100007000000e0000a003500b8
:1005d000d06d81000900e00002003a0000047800bc
:1005e00006003700000478000900400006000700fc
:1005f0000000e00001003d000084eb0008007800ee
:100600004f04be0000000600800078000000e000fb
:1006100004003a00c0db2200d06d8900010178009f
:10062000060037000081eb0000e22300808f5000bd
:1006300002003e00d16d89000001eb00020078004d
:1006400000000600020007000400be0000000600d3
:100650006022b800060220000000d0008180d20095
:100660000482d2008582d2000000a0000202520063
:1006700083825a00030031000202420083824a0052
:100680000000a1000603e900f3ff3a0000000600a5
:10069000889fbe008a9fbe008c1f78000205be00a6
:1006a0000004be000006eb00e00f5000e08f580091
:1006b000e00f5900e08f590007003d006000b800ce
:1006c0006011b80008045000898458000a055900d8
:1006d0008b8559001c002000e00f5200e08f5a006b
:1006e000e00f5b00e08f5b0002003d000f000700a1
:1006f0000c00a2000800be000a01be00f7010700be
:100700000203be000002be000c00e0000100320047
:10071000060007000400be000601be004f06780078
:100720004f05be004f04be00000006006000b80088
:100730006011b80004025000858258000603590079
:100740008783590000000600881f780000047800a5
:100750005001be004000be000400400085804800fb
:100760000601490087814900009cbe000294be003a
:100770000400e1000588e1000690e1000798e1002f
:1007800002003100680044001008e8004f047800bf
:1007900000000600f4874700889fbe008a9fbe00c5
:1007a0008c9fbe008e1f78000205be000004be00b4
:1007b000d4b79f00e5b79f00f6b79f0087bf9f00a3
:1007c0000000eb00c0b79f00b0b79f00a0b79f002c
:1007d00090b79f0080b79f000d042000bfb0970026
:1007e0004fb09700000140000000e0000f003d0006
:1007f0004f08de0000007100c0b79f009e00070098
:1008000001003d0012002000a100070001003d0092
:1008100012002000a6000700b1000700b600070084
:100820000f004000c8ff0700220037004f08de001d
:1008300000067100ccb79f008f00070001003d004b
:10084000120020009200070001003d00120020006d
:1008500097000700a20007000fb297009fb2970011
:100860002fb39700bfb39700a90007000000520004
:1008700081805a0002015b0083815b0080b79f008a
:1008800091b79f00a2b79f00b3b79f000007eb008e
:100890009f0007000020e10001a8e10002b0e10094
:1008a00003b8e100010031001e0020000e005600d8
:1008b000c0b79f004fb297000400e000070035006a
:1008c00010002000010020006011b8000804700032
:1008d000898470000a0571008b8571008d06e9001e
:1008e000beff3a000400e00003003d008200070064
:1008f0000f00400094ff07004fa897000000e000a1
:1009000004003a000fb497009fb497002fb59700ea
:10091000bfb59700940007004f0778004f06be0050
:100920004f05be004f04be004f01b100000006009d
:10093000881f780018002000881f780095ff0700a6
:100940008f87e9004f04780000000600801feb004d
:1009500090ff07008f87e90000000600889fbe0017
:100960008a9fbe008c1f78006e00070007003d00c4
:1009700073000700e00f5b00e08f5b0007003d00a5
:10098000320007000006eb000400370034000700c7
:1009900002003d002a0007001c0020007200070032
:1009a000e3ff07000203be000002be000c00e000ef
:1009b00001003200220007000400be000601be0054
:1009c0004f0678004f05be004f04be000000060031
:1009d000889fbe008a9fbe008c1f780051000700d0
:1009e00005003d0056000700e00f5b00e08f5b0054
:1009f00006003d00040037001900070003003d0019
:100a00006000b8006011b800100007005600070031
:100a1000ceff07000203be000002be000c00e00093
:100a200001003200060007000400be000601be00ff
:100a30004f0678004f05be004f04be0000000600c0
:100a40006000b8006011b8000000370004025000d8
:100a5000858258000603590087835900000006006c
:100a60000006eb00e00f5200e08f5a00e00f5b0041
:100a7000e08f5b00000006000180400090b79f00ff
:100a80000001eb008fb097000100e00000000600bd
:100a90000200700090b79f000180400080b79f0067
:100aa0000001eb00ffa897000100e0000000060035
:100ab0000200700080b79f00018040006faa97007d
:100ac000cf20de0001007000f0af9f000402420062
:100ad000250007004f18de0000027200000006002b
:100ae000e4af9f000804440089844c000a054d00cf
:100af0008b854d00000006003fb29700cfb29700f3
:100b00005fb39700efb3970000fe2f0000000600d0
:100b10003fb09700cfb097005fb19700efb197005b
:100b2000000006000205be000004be00e00f5000f9
:100b3000e08f5800e00f5900e08f590000000600d8
:100b40006000b8006011b8000804500089845800a3
:100b50000a0559008b8559001c002000e00f520047
:100b6000e08f5a00000006000800be000a01be0027
:100b700000000600889fbe008a9fbe000105780025
:100b80000100e0000400350008003c000000e00027
:100b9000200032000500370060001000e0801800df
:100ba00002003b0001f02c001a0037000004be00d8
:100bb0006011b8006b0920000982cf0002003900e3
:100bc0000882cf000441b000694252000e0032009a
:100bd00008003b0082817100610164008904d1003a
:100be0000884d3008b05e8000442e800f9ff3a00ce
:100bf000050037000804440089844c008b05e90097
:100c00000442e900fbff3a00d60007000af0a70003
:100c100001f0a0004f05be004f04be00000006001a
:100c200003f0a200889fbe008a9fbe008c1f780040
:100c3000f2000700f90033006450e1004f00320079
:100c40006420e1005200320003826c0007003b0088
:100c50000905d0000306d000820f54000c065d0089
:100c60000200390002003200890178000306780092
:100c70008582550004003d000003fd008103fd0056
:100c80008502ea008b854200840f720002003b005f
:100c900060001000e08018006011b8000005eb0053
:100ca0007a28e1000a00390006007800c75ddd00ff
:100cb000f707b200878075002d0037008281710030
:100cc0000a017800610560008180d1000080d300b6
:100cd0008502e900f9ff3b000604400087844800d4
:100ce00002003b0060041400e0841c000988a3009b
:100cf000070032008a817100828171006101640005
:100d00008904d1000884d3008b05e8001700370060
:100d10000978a30013003a000b00e0001300340030
:100d20008b05e9000804440089844c000a447400df
:100d30000978a3000d003a000b00e0000700340022
:100d40008b05e9000804440089844c0001003a0046
:100d50000b0020000978a300f7ff32000001eb0030
:100d600002003700828171000a0178007d000700cf
:100d70000cf0a70001f0a000b10037006420e100f2
:100d800002003a00838f6c00b10033000801be00fe
:100d90000200be00aa003700f4ff2f00af003700aa
:100da000889fbe008a9fbe008c1f780093000700ba
:100db0009a00330003866c006450e1002400320086
:100dc0006420e100270032006150e100220032007f
:100dd0006120e100210032008b854200eb07b10069
:100de0000134b800003ab8000804420089844a007f
:100df000013ab8000030b8008880400009014a007c
:100e000004003300000040008180480002014900d6
:100e10008b05e900c909dd00830170000100320083
:100e200013002000c814de004814dd004709de006e
:100e30001200b200c808de000884700049000700f4
:100e400001f0a1000cf0a70001f0a0007c00370029
:100e50006120e1007e0032000801be000200be00f9
:100e6000f7ff37006150e100fcff3a0078003700df
:100e70000001be00940007000470a70003f0a10069
:100e800003f8a30013003a006509b1001000320016
:100e9000090035006928e100020035000100280042
:100ea0000000050000004000818048008502e90044
:100eb000fcff3a0000000600f88f420005003500f4
:100ec0008100d1000080d3008502e800fcff3a00d9
:100ed000000006008000eb0000000500889fbe00b7
:100ee0008a9fbe008c9fbe000404b8000506b800af
:100ef0008904460060854e000606b8000a054600d3
:100f0000e0854e000706b8008b054600040eb800c9
:100f1000890446000a854e00e0854d00050eb800a4
:100f20000a0546008b854e00060eb8008b0546006c
:100f30000416b8000a0546008b854e000516b80059
:100f40008b054600041eb8008b0546000800be0055
:100f50000a01be004f06be004f05be004f04be0092
:100f60000000060081002000618055000b003d005c
:100f70000b00200061fe2f000100e1001d00340085
:100f800082817100610164008904d1000884d3006a
:100f90000000e800faff3a007100200061006400e0
:100fa0000300700002006000090032006104440088
:100fb000e0844c000988a500050032008b05e8009c
:100fc0006808e10002003a008904d1000884d300d7
:100fd000f20f20000258e10005003d00c75ddd0072
:100fe000f907b2008980750008007800000006004b
:100ff0000bf827008b007800000005000004be00fd
:10100000310007000003be000405be000200be0060
:101010002d000700844f7500000006000200be008e
:101020006450e100050036006420e1000200360053
:101030000968a30001003a000800be000160a0009a
:101040004f0678004f05be004f04be0000000600aa
:10105000f0ff2f00f1ff2700f9ff3700889fbe0047
:101060008a9fbe00841f7800e4ff07004f007800cd
:1010700011003300f0ff2f00838f6c0006003b004f
:10108000040565000a00a7000800370009f0a60063
:101090001000200008003700820f5400838f5c008e
:1010a000030039001000200001003e000000200075
:1010b00009f0a7000000ea004f05be004f04be0083
:1010c0000000e00000000600c70ade00f107b200e1
:1010d000f50fb20008003200e1cf420002003200fa
:1010e0000170a00024000500810f70000100320093
:1010f0000408050044000500810f700002003a005a
:10110000140005008502e9000000400081c048008d
:10111000fcff3b000170a00024000500889fbe007a
:101120008a9fbe008c9fbe000001780081d52200fe
:101130001100e0000b003a00c0d52200c06a89000f
:10114000a06a8900e16a8900b16a890021409000a3
:101150000004a000a0409800614090000004a0009e
:10116000e0409800e7004100c208de00c20cdd004c
:10117000b46a8100cddb220000e223000d0550009f
:1011800022002000811f7800110009000205d8000c
:1011900000067800cf007800c308dd00e485400039
:1011a0008001eb00c6db220085d52200010037005c
:1011b00001027800244090000008a30002003200e1
:1011c0000a003700110a780094007800214090004e
:1011d0000008a300fbff320009014200828f50008b
:1011e00002003900840f510046003100940078005d
:1011f000848f5000eeff3e00868f500002003900c1
:10120000858f5000eaff3900a06a8100800f5200ec
:101210004f003a00858f50004d003a008301e800ee
:10122000e18f5100e2ff36008c8f5400040036003d
:101230008a8f5400020031000b047800120037003e
:10124000614ab8006151b900b0ff2f0001002000d1
:101250000200500083805800800f5200818f5a0096
:101260000200350009047800070037000d805400a3
:1012700032e2230002004000110009000a80d80079
:101280000a80b9000004780008007800c8fc070054
:1012900080017800e10f40002d003200a06a81003b
:1012a00003087800a26a810064004100a240900017
:1012b000808f5100020032000104a00001003700bd
:1012c0000104a10021419800088041006400500001
:1012d00080097800a06a890082d52200020878007f
:1012e000a16a8100214090000004a000a040980065
:1012f000234090000004a100a04198000202780061
:10130000a7ff3700b26a8900828f500009003600bb
:101310009200780020d52200a24190000348780076
:10132000816a8900140978008040eb00b06a81006e
:1013300021409800b06a8100000a780024409000a3
:101340000004a00020429800640042000100370021
:101350000000eb004f06be004f05be004f04be006c
:101360000000060064005000b06a8900a0409000b0
:101370000104a1002140980000000600889fbe00e3
:101380008a9fbe0000057800e401500013001000a1
:10139000c285de00234090000008a3000400320054
:1013a000b36a8900234090000004a100a041980086
:1013b0000100780059ff0700000478000000e000f9
:1013c000170032008a0f50001500320060b89700f5
:1013d00008005000c284de00898f550001003600ed
:1013e000890578004259dd008a00780008007800fd
:1013f000300007008a0f5400090031004248dd0028
:10140000000044008a0f5000050036000a0050001a
:1014100000004400826a8100936a81000288be0055
:10142000080078004f05be004f04be000000060013
:101430008001eb0002003700817178008301e80031
:10144000828f5100fcff3a00000006000400fa0001
:10145000e0bf9f00e4815700812978000002eb0083
:101460000f0037006fb89700904078007fb8970062
:10147000104078000402e80080cf500004003200e1
:101480008180fb000080fb000080500007003700d7
:101490006fb897000000e800e0bf9f009309e800e4
:1014a000820f5200efff3a000000eb000080fa00cc
:1014b000000006008001eb000200370061f07900b7
:1014c0008301e800828f5100fcff3a000000060013
:020000040000fa
:020000040005f5
:0457f800fdf20000be
:020000040000fa
:020000040005f5
:0457fc007f3e0000ec
:020000040000fa
:10000800d4020000d402000052660200d4020000ac
:10001800d4020000d4020000d4020000d402000080
:10002800d4020000d4020000d4020000d402000070
:10003800d4020000d4020000d4020000d402000060
:10004800d4020000d4020000d40200007c61020047
:10005800ce610200d4020000d4020000d4020000e5
:10006800d4020000d4020000d4020000d402000030
:1000780058370200d4020000d4020000d402000065
:10008800d4020000d4020000d4020000d402000010
:10009800d4020000d4020000d4020000d402000000
:1000a800d4020000d4020000d4020000d4020000f0
:1000b800d4020000d4020000d4020000d4020000e0
:1000c800d4020000d4020000d4020000d4020000d0
:1000d800d4020000d4020000d4020000d4020000c0
:1000e800d4020000d4020000d4020000d4020000b0
:1000f800d4020000d4020000d4020000d4020000a0
:10010800d4020000d4020000d4020000d40200008f
:10011800d4020000d4020000d4020000d40200007f
:10012800d4020000d4020000d4020000d40200006f
:10013800d4020000d4020000d4020000d40200005f
:10014800d4020000d4020000d4020000d40200004f
:10015800d4020000d4020000d4020000d40200003f
:10016800d4020000d4020000d4020000d40200002f
:10017800d4020000d4020000d4020000d40200001f
:10018800d4020000d4020000d4020000d40200000f
:10019800d4020000d4020000d4020000d4020000ff
:1001a800d4020000d4020000d4020000d4020000ef
:1001b800d4020000d4020000d4020000d4020000df
:1001c800d4020000d4020000d4020000d4020000cf
:1001d800d4020000d4020000d4020000d4020000bf
:1001e800d4020000d4020000d4020000d4020000af
:0801f800d4020000d402000053
:020000040000fa
:10020800d4020000d402000052660200d4020000aa
:10021800d4020000d4020000d4020000d40200007e
:10022800d4020000d4020000d4020000d40200006e
:10023800d4020000d4020000d4020000d40200005e
:10024800d4020000d4020000d40200007c61020045
:10025800ce610200d4020000d4020000d4020000e3
:10026800d4020000d4020000d4020000d40200002e
:1002780058370200d4020000d4020000d402000063
:10028800d4020000d4020000d4020000d40200000e
:10029800d4020000d4020000d4020000d4020000fe
:1002a800d4020000d4020000d4020000d4020000ee
:1002b800d4020000d4020000d4020000d4020000de
:1002c800d4020000d4020000d4020000d4020000ce
:1002d800d4020000d4020000d4020000d4020000be
:1002e800d4020000d4020000d4020000d4020000ae
:1002f800d4020000d4020000d4020000d40200009e
:10030800d4020000d4020000d4020000d40200008d
:10031800d4020000d4020000d4020000d40200007d
:10032800d4020000d4020000d4020000d40200006d
:10033800d4020000d4020000d4020000d40200005d
:10034800d4020000d4020000d4020000d40200004d
:10035800d4020000d4020000d4020000d40200003d
:10036800d4020000d4020000d4020000d40200002d
:10037800d4020000d4020000d4020000d40200001d
:10038800d4020000d4020000d4020000d40200000d
:10039800d4020000d4020000d4020000d4020000fd
:1003a800d4020000d4020000d4020000d4020000ed
:1003b800d4020000d4020000d4020000d4020000dd
:1003c800d4020000d4020000d4020000d4020000cd
:1003d800d4020000d4020000d4020000d4020000bd
:1003e800d4020000d4020000d4020000d4020000ad
:0803f800d4020000d402000051
:020000040000fa
:1014d0000d0a000020200000202000002031000024
:1014e0003a2000004c6f0000636100006c20000097
:1014f0005365000074740000696e0000677300009b
:101500000d0a0000202000002020000020320000f2
:101510003a200000476500006e6500007269000017
:1015200063200000436f00006d6d0000616e0000dd
:10153000647300000d0a000020200000202000003d
:10154000203300003a20000042610000736900006f
:1015500063200000436c0000757300007465000098
:1015600072200000436f00006d6d0000616e00008e
:10157000647300000d0a00002020000020200000fd
:10158000203400003a20000049640000656e00002d
:101590007469000066790000204300006c7500004b
:1015a0007374000065720000204300006f6d00003e
:1015b0006d6100006e640000730d00000a200000e1
:1015c0002020000020200000353a000020430000c9
:1015d0006f6d00006d69000073730000696f00009b
:1015e0006e6900006e670000204300006c7500000b
:1015f0007374000065720000204300006f6d0000ee
:101600006d6100006e640000730d00000a20000090
:101610002020000020200000363a0000204d00006d
:1016200065730000736100006765000020430000df
:101630006c750000737400006572000020430000a8
:101640006f6d00006d6100006e640000730d00009e
:101650000a2000002020000020200000373a00006f
:10166000204d00006574000065720000696e000086
:1016700067200000436c0000757300007465000073
:1016800072200000436f00006d6d0000616e00006d
:10169000647300000d0a00002020000020200000dc
:1016a000203800003a2000005072000069630000fa
:1016b00065200000436c0000757300007465000035
:1016c00072200000436f00006d6d0000616e00002d
:1016d000647300000d0a000020200000202000009c
:1016e000203900003a200000445200004c43000022
:1016f000204300006c7500007374000065720000e8
:10170000204300006f6d00006d6100006e640000fa
:10171000730d00000a20000020200000202000009f
:10172000613a0000204900006e74000065720000fc
:101730002d500000414e00000d0a00002020000046
:1017400020200000206300003a20000044690000cf
:10175000737000006c610000790d00000a20000029
:101760002020000020200000643a000020410000fa
:101770006c610000726d0000204300006c75000079
:101780007374000065720000204300006f6d00005c
:101790006d6100006e640000730d00000a200000ff
:1017a0002020000020200000653a000020470000b3
:1017b000726f00007570000073200000436c000021
:1017c000757300007465000072200000436f000014
:1017d0006d6d0000616e0000647300000d0a000072
:1017e0002020000020200000206600003a20000099
:1017f00053630000656e0000657300002043000025
:101800006c750000737400006572000020430000d6
:101810006f6d00006d6100006e640000730d0000cc
:101820000a2000002020000020200000673a00006d
:101830002054000065730000742000004672000010
:10184000616700006d6500006e7400006174000047
:10185000696f00006e0d00000a20000020200000cb
:1018600020200000683a0000204c0000696e000053
:101870006b20000053740000617400007573000059
:10188000204300006f6d00006d6100006e64000079
:101890002054000065730000746900006e6700004a
:1018a0000d0a000009200000206d00003a20000011
:1018b0004d53000045440000434c0000204300000d
:1018c0006c750000737400006572000020740000e5
:1018d00065730000740d00000a090000202000005c
:1018e0006e3a000020460000696e0000642000008f
:1018f0004e7500006d62000065720000206f0000f0
:10190000662000004e6f0000646500002063000048
:101910006f6e00006e650000637400006564000077
:101920000d0a00002020000020200000206f000091
:101930003a2000004d6100006b650000204500006a
:101940005350000020610000732000004d5400003f
:10195000520a00000d20000020200000202000007e
:10196000713a00002044000069730000636f0000ba
:101970007665000072200000526f00007574000050
:10198000650d00000a20000020200000202000003b
:10199000703a0000204d0000616b000065200000df
:1019a0004d540000522000006173000020450000eb
:1019b0005350000020770000697400006820000088
:1019c000476c00006f6200006c650000207300002f
:1019d00074720000726900006e67000073000000fe
:1019e000688a00000d0a000020200000596f0000e6
:1019f000752000004861000076650000205300005b
:101a0000656c0000656300007465000064200000e0
:101a10005365000074740000696e00006773000075
:101a2000204f000070740000696f00006e0d000010
:101a30000a2000002020000020200000313a000091
:101a400020540000696d000065200000536500000f
:101a500074740000696e0000677300000d0a0000d6
:101a60002020000020200000203200003a2000004a
:101a70005570000064610000746500002050000093
:101a80007269000063650000205300006574000067
:101a9000746900006e670000730d00000a200000ea
:101aa0002020000020200000333a0000204c0000dd
:101ab0006f630000616c0000205700007269000035
:101ac00074650000206600006f7200002053000063
:101ad000696e0000676c0000652000004174000022
:101ae000747200000d0a0000202000002020000079
:101af000203400003a2000004c6f000063610000b9
:101b00006c200000426900006e640000696e0000f5
:101b1000670d00000a2000002020000020200000a7
:101b2000353a000020530000657400002044000096
:101b3000524c00004320000045760000656e000016
:101b4000740d00000a20000020200000202000006a
:101b5000363a0000204500006e610000626c000013
:101b6000652f00004469000073610000626c000092
:101b70006520000050650000726d0000697400006f
:101b8000204a00006f6900006e0d00000a2000006e
:101b90002020000020200000373a000020550000df
:101ba0007064000061740000652000005374000040
:101bb0006172000074200000546900006d6500002f
:101bc000206f000066200000507200006963000072
:101bd000652000005469000065720000730d00006c
:101be0000a2000002020000020200000383a0000d9
:101bf000205300006574000020440000657300005d
:101c0000746900006e610000746900006f6e00006e
:101c1000204500006e640000205000006f69000045
:101c20006e7400000d0a000020200000202000003b
:101c3000203900003a200000526500007175000054
:101c40006573000074200000437500007374000089
:101c50006f6d000065720000205300007065000089
:101c6000636900006669000063200000436c0000a7
:101c7000757300007465000072200000496e00005a
:101c8000666f000000000000f28c00000d0a0000ea
:101c900020200000596f00007520000048610000fe
:101ca0007665000020530000656c0000656300004d
:101cb0007465000064200000476500006e65000048
:101cc0007269000063200000436f00006d6d00002a
:101cd000616e0000647300000d0a00002020000007
:101ce00020200000203100003a2000005265000052
:101cf00061640000204100007474000072690000fb
:101d00006275000074650000204300006f6d0000e4
:101d10006d6100006e6400000d0a000020200000cc
:101d200020200000203200003a20000057720000fe
:101d300069740000652000004174000074720000a6
:101d4000696200007574000065200000436f0000a8
:101d50006d6d0000616e0000640d00000a2000003f
:101d60002020000020200000333a00002044000022
:101d700069730000636f0000766500007220000048
:101d80004174000074720000696200007574000004
:101d900065200000436f00006d6d0000616e000063
:101da000640d00000a200000202000002020000018
:101db000343a0000204300006f6e000066690000a6
:101dc0006775000072650000205200006570000019
:101dd0006f72000074200000436f00006d6d000002
:101de000616e0000640d00000a2000002020000049
:101df00020200000353a00002052000065610000fc
:101e00006420000052650000706f000072740000d2
:101e1000204300006f6d00006d6100006e640000e3
:101e200000000000468e00000d0a00002020000087
:101e3000596f0000752000004861000076650000c1
:101e400020530000656c00006563000074650000ad
:101e500064200000426100007369000063200000fc
:101e6000436c000075730000746500007220000070
:101e7000436f00006d6d0000616e00006473000030
:101e80000d0a00002020000020200000203100006a
:101e90003a200000526500007365000074200000c5
:101ea000546f00002046000061630000746f000062
:101eb0007279000020440000656600006175000032
:101ec0006c74000073200000436f00006d6d000013
:101ed000616e000064000000148f00000d0a000015
:101ee00020200000596f00007520000048610000ac
:101ef0007665000020530000656c000065630000fb
:101f0000746500006420000049640000656e0000f4
:101f10007469000066790000204300006c750000c1
:101f20007374000065720000204300006f6d0000b4
:101f30006d6100006e640000730d00000a20000057
:101f40002020000020200000313a0000204900003d
:101f5000646500006e74000069660000792000006e
:101f6000436f00006d6d0000616e0000640d0000a5
:101f70000a2000002020000020200000323a00004b
:101f800020490000646500006e740000696600006e
:101f90007920000051750000657200007920000072
:101fa000436f00006d6d0000616e00006400000072
:101fb0006e8f00000d0a000020200000596f000005
:101fc0007520000048610000766500002053000085
:101fd000656c00006563000074650000642000000b
:101fe000436f00006d6d00006973000073690000ad
:101ff0006f6e0000696e000067200000436c0000f7
:10200000757300007465000072200000436f0000cb
:102010006d6d0000616e0000647300000d0a000029
:102020002020000020200000203100003a20000085
:10203000436f00006d6d000069730000736900005c
:102040006f6e0000207400006865000020440000ee
:102050006576000069630000650d00000a2000003d
:102060002020000020200000323a00002052000012
:102070006573000074610000727400002044000069
:10208000657600006963000065200000436f000072
:102090006d6d0000616e0000640d00000a200000fc
:1020a0002020000020200000333a000020530000d0
:1020b00061760000652000005341000053200000bd
:1020c000436f00006d6d0000616e0000640d000044
:1020d0000a2000002020000020200000343a0000e8
:1020e0002052000065730000746f000072650000ec
:1020f0002053000041530000204300006f6d00009a
:102100006d6100006e6400000d0a000020200000d8
:1021100020200000203500003a2000005265000019
:10212000736500007420000053410000532000003c
:10213000436f00006d6d0000616e000064000000e0
:10214000da8f00000d0a000020200000596f000007
:1021500075200000486100007665000020530000f3
:10216000656c000065630000746500006420000079
:102170004d6500007373000061670000652000007a
:10218000436c00007573000074650000722000004d
:10219000436f00006d6d0000616e0000647300000d
:1021a0000d0a000020200000202000002031000047
:1021b0003a20000044690000737000006c61000068
:1021c000792000004d650000737300006167000016
:1021d00065200000436f00006d6d0000616e00001f
:1021e000640d00000a2000002020000020200000d4
:1021f000323a000020430000616e00006365000079
:102200006c2000004d6500007373000061670000e2
:1022100065200000436f00006d6d0000616e0000de
:1022200064000000a29000000d0a000020200000c1
:10223000596f0000752000004861000076650000bd
:1022400020530000656c00006563000074650000a9
:10225000642000004d650000746500007269000094
:102260006e670000204300006c750000737400006e
:1022700065720000204300006f6d00006d6100007a
:102280006e640000730d00000a2000002020000092
:1022900020200000313a0000204700006574000053
:1022a00020500000726f0000666900006c6500003d
:1022b0002052000065710000756500007374000015
:1022c000204300006f6d00006d6100006e6400002f
:1022d00000000000149100000d0a00002020000002
:1022e000596f00007520000048610000766500000d
:1022f00020530000656c00006563000074650000f9
:102300006420000050720000696300006520000036
:10231000436c0000757300007465000072200000bb
:10232000436f00006d6d0000616e0000647300007b
:102330000d0a0000202000002020000020310000b5
:102340003a20000050750000626c000069730000c4
:1023500068200000507200006963000065200000e2
:10236000436f00006d6d0000616e000064000000ae
:102370006c9100000d0a000020200000596f000041
:1023800075200000486100007665000020530000c1
:10239000656c000065630000746500006420000047
:1023a000445200004c430000204300006c750000c4
:1023b0007374000065720000204300006f6d000020
:1023c0006d6100006e640000730d00000a200000c3
:1023d0002020000020200000313a0000204c0000a6
:1023e0006f61000064200000436f00006e74000005
:1023f000726f00006c20000045760000656e0000e2
:1024000074200000436f00006d6d0000616e0000dd
:10241000640d00000a2000002020000020200000a1
:10242000323a000020430000616e00006365000046
:102430006c2000004c6f000061640000204300002d
:102440006f6e0000747200006f6c00002045000089
:10245000766500006e740000204300006f6d000080
:102460006d6100006e6400000d0a00002020000075
:1024700020200000203300003a20000043610000cb
:102480006e630000656c0000204100006c6c000071
:10249000204c00006f61000064200000436f0000ca
:1024a0006e740000726f00006c2000004576000022
:1024b000656e000074730000204300006f6d000023
:1024c0006d6100006e64000000000000ba91000021
:1024d0000d0a000020200000596f00007520000048
:1024e000486100007665000020530000656c000024
:1024f000656300007465000064200000496e000000
:1025000074650000722d0000504100004e20000054
:10251000436f00006d6d0000756e00006963000080
:1025200061740000696f00006e0d00000a20000059
:102530002020000020200000313a00002049000047
:102540006e740000657200002d500000414e0000c6
:1025500020500000756200006c6900007368000084
:1025600020500000726900006365000020430000f5
:102570006f6d00006d6100006e6400000d0a0000c8
:102580002020000020200000203200003a2000001f
:1025900044690000737000006c6100007920000045
:1025a0004d65000073730000616700006520000046
:1025b000436f00006d6d0000616e0000640d00004f
:1025c0000a2000002020000020200000333a0000f4
:1025d00020430000616e0000636500006c20000075
:1025e0004d65000073730000616700006520000006
:1025f000436f00006d6d0000616e0000640000001c
:10260000689200000d0a000020200000596f0000b1
:10261000752000004861000076650000205300002e
:10262000656c0000656300007465000064200000b4
:1026300044690000737000006c61000079200000a4
:102640004f700000746900006f6e00000d0a0000fa
:102650002020000020200000203100003a2000004f
:10266000507200006963000065200000457600009c
:10267000656e00007473000000000000029300000b
:102680000d0a000020200000596f00007520000096
:10269000486100007665000020530000656c000072
:1026a000656300007465000064200000416c000058
:1026b000617200006d200000436c00007573000023
:1026c0007465000072200000436f00006d6d000013
:1026d000616e0000647300000d0a000020200000fd
:1026e00020200000203100003a2000005265000048
:1026f0007365000074200000416c000061720000ee
:102700006d200000436f00006d6d0000616e0000e1
:10271000640d00000a20000020200000202000009e
:10272000323a00002052000065730000657400001a
:10273000204100006c6c0000204100006c61000032
:10274000726d0000204300006f6d00006d6100009d
:102750006e6400000d0a0000202000002020000010
:10276000203300003a20000047650000742000007c
:10277000416c0000617200006d200000436f00009a
:102780006d6d0000616e0000640d00000a20000005
:102790002020000020200000343a000020520000d9
:1027a0006573000065740000204100006c6100004a
:1027b000726d0000204c00006f6700002043000095
:1027c0006f6d00006d6100006e640000000000008d
:1027d000409300000d0a000020200000596f000007
:1027e000752000004861000076650000205300005d
:1027f000656c0000656300007465000064200000e3
:10280000477200006f7500007073000020430000e5
:102810006c750000737400006572000020430000b6
:102820006f6d00006d6100006e640000730d0000ac
:102830000a2000002020000020200000313a000083
:10284000204100006464000020470000726f000017
:1028500075700000204300006f6d00006d61000086
:102860006e6400000d0a00002020000020200000ff
:10287000203200003a200000566900006577000011
:1028800020470000726f00007570000020430000b8
:102890006f6d00006d6100006e6400000d0a0000a5
:1028a0002020000020200000203300003a200000fb
:1028b0004765000074200000477200006f7500003b
:1028c000702000004d6500006d6200006572000020
:1028d0007368000069700000204300006f6d000005
:1028e0006d6100006e6400000d0a000020200000f1
:1028f00020200000203400003a2000005265000033
:102900006d6f00007665000020470000726f0000c8
:1029100075700000204300006f6d00006d610000c5
:102920006e6400000d0a000020200000202000003e
:10293000203500003a200000526500006d6f000055
:1029400076650000204100006c6c0000204700000c
:10295000726f00007570000073200000436f00006c
:102960006d6d0000616e0000640d00000a20000023
:102970002020000020200000363a00002041000006
:102980006464000020470000726f00007570000052
:10299000204900006620000049640000656e0000c8
:1029a0007469000066790000696e0000672000000d
:1029b000436f00006d6d0000616e00006400000058
:1029c000ea9300000d0a000020200000596f00006b
:1029d000752000004861000076650000205300006b
:1029e000656c0000656300007465000064200000f1
:1029f00053630000656e0000657300002043000013
:102a00006c750000737400006572000020430000c4
:102a10006f6d00006d6100006e640000730d0000ba
:102a20000a2000002020000020200000313a000091
:102a30002041000064640000205300006365000032
:102a40006e650000204300006f6d00006d610000a6
:102a50006e6400000d0a000020200000202000000d
:102a6000203200003a20000056690000657700001f
:102a700020530000636500006e65000020430000e5
:102a80006f6d00006d6100006e6400000d0a0000b3
:102a90002020000020200000203300003a20000009
:102aa000526500006d6f0000766500002053000045
:102ab000636500006e650000204300006f6d00003c
:102ac0006d6100006e6400000d0a0000202000000f
:102ad00020200000203400003a2000005265000051
:102ae0006d6f000076650000204100006c6c0000f6
:102af00020530000636500006e6500007320000035
:102b0000436f00006d6d0000616e0000640d0000f9
:102b10000a2000002020000020200000353a00009c
:102b200020530000746f0000726500002053000005
:102b3000636500006e650000204300006f6d0000bb
:102b40006d6100006e6400000d0a0000202000008e
:102b500020200000203600003a20000052650000ce
:102b6000636100006c6c000020530000636500008e
:102b70006e650000204300006f6d00006d61000075
:102b80006e6400000d0a00002020000020200000dc
:102b9000203700003a200000476500007420000044
:102ba00053630000656e0000652000004d65000065
:102bb0006d620000657200007368000069700000bb
:102bc000204300006f6d00006d6100006e64000026
:102bd0000d0a000020200000202000002038000006
:102be0003a2000005265000061640000205300009c
:102bf000636500006e6500002045000078740000e9
:102c0000656e0000736900006f6e000020410000d7
:102c10007474000072690000627500007465000041
:102c200073000000e29400000d0a00002020000064
:102c3000596f0000752000004861000076650000b3
:102c4000204f0000707400006564000020660000e2
:102c50006f7200002066000072610000676d000066
:102c6000656e000074610000746900006f6e000002
:102c70002074000065730000746900006e67000036
:102c8000200d00000a20000020200000202000006d
:102c9000313a0000204900006e69000074690000ac
:102ca000616c0000697a0000652000006672000017
:102cb000616700006d6500006e74000061740000c3
:102cc000696f00006e2000007061000072610000fa
:102cd0006d65000074650000727300000d0a00004d
:102ce0002020000020200000203200003a200000b8
:102cf000536500006e6400002064000061740000f1
:102d0000612000006279000020660000726100000e
:102d1000676d0000656e000074610000746900005a
:102d20006f6e000000000000149600000d0a000005
:102d3000000d00000a45000078740000656e000078
:102d4000646500006420000061640000647200009b
:102d50006573000073200000746100006b65000063
:102d60006e200000667200006f6d0000207a000087
:102d70006967000062650000652e00006465000060
:102d800066200000666900006c650000000d000010
:102d90000a4500006e740000657200002074000097
:102da00068650000204d0000656e00007520000081
:102db000436800006f690000636500003a0000008e
:102dc0000d0a0000546100006b650000696e000090
:102dd000672000004465000066610000756c00001b
:102de00074200000766100006c75000065730000bf
:102df00020660000726f00006d2000007a690000fc
:102e000067620000656500002e64000065660000d2
:102e1000000d00000a4500006e740000657200009d
:102e200020740000686500002053000074610000f9
:102e30007274000055700000204300006f6e0000a7
:102e4000747200006f6c0000206900006e200000aa
:102e5000486500007820000028300000312d000077
:102e6000466f0000726d0000204e00002f570000da
:102e70002c200000303200002d4a00006f69000055
:102e80006e2000004e2f0000572900003a0000007d
:102e90000d0a0000456e00007465000072200000fd
:102ea0007468000065200000507200006543000057
:102eb0006f6e0000666900006775000072650000b3
:102ec000642000004c6900006e6b0000204b000085
:102ed00065790000207a0000657200006f740000c0
:102ee0006820000062790000746500002066000020
:102ef00069720000737400003a0000000d0a0000bf
:102f0000456e0000642000006f6600002044000051
:102f10006174000061200000456e000074720000c2
:102f2000792000000d0a0000000d00000a45000095
:102f30006e74000065720000207400006865000077
:102f40002045000078740000656e00006465000094
:102f500064500000414e00004964000020690000f8
:102f60006e200000486500007820000030740000ea
:102f7000682000004669000072730000743a000087
:102f8000000d00000a4500006e740000657200002c
:102f900020740000686500002059000072200000c5
:102fa000286900006e20000044650000636900008d
:102fb0006d6100006c2000002d2000007979000078
:102fc000293a0000000d00000a4500006e74000060
:102fd000657200002074000068650000204d00004c
:102fe0006f6e000020280000696e00002044000081
:102ff00065630000696d0000616c0000202d000019
:10300000206d00006d2900003a0000000d0a00004c
:10301000456e0000746500007220000074680000b6
:10302000652000006461000079200000286900002c
:103030006e20000044650000636900006d610000bf
:103040006c2000002d20000064640000293a00007c
:10305000000d00000a4500006e740000657200005b
:103060002074000068650000204800007220000005
:103070002832000034200000487200007320000055
:10308000666f0000726d0000617400003a2000005d
:10309000696e00002044000065630000696d000057
:1030a000616c0000202d00002068000068290000ed
:1030b0003a0000000d0a0000456e00007465000033
:1030c0007220000074680000652000004d69000057
:1030d0006e200000286900006e200000446500009a
:1030e000636900006d6100006c2900003a00000077
:1030f0000d0a0000456e000074650000722000009b
:1031000074680000652000004973000073750000ba
:103110006572000045760000656e0000744900008d
:1031200064200000286900006e200000486500004f
:103130007829000020280000342000004279000097
:1031400074650000732900003a0000000d0a0000b9
:10315000456e000074650000722000007468000075
:10316000652000004e6500007720000050720000ce
:103170006963000065200000286900006e200000df
:103180004865000078290000202800003420000055
:103190004279000074650000732900003a000000c5
:1031a0000d0a0000456e00007465000072200000ea
:1031b0007468000065200000537400006172000014
:1031c00074540000696d0000652000002d2000008f
:1031d000596500006172000020280000696e00003f
:1031e0002044000065630000696d0000616c000010
:1031f000202d000020790000792900003a0000000d
:103200000d0a0000456e0000746500007220000089
:1032100074680000652000005374000061720000b3
:1032200074540000696d0000652000002d2000002e
:103230004d6f00006e7400006820000028690000d7
:103240006e20000044650000636900006d610000ad
:103250006c2000002d2000006d6d0000293a000058
:10326000000d00000a4500006e7400006572000049
:1032700020740000686500002053000074610000a5
:1032800072740000546900006d650000202d00007c
:10329000206400006179000020280000696e0000b1
:1032a0002044000065630000696d0000616c00004f
:1032b000202d000020640000642900003a00000076
:1032c0000d0a0000456e00007465000072200000c9
:1032d00074680000652000005374000061720000f3
:1032e00074540000696d0000652000002d2000006e
:1032f000486f000075720000202800003234000082
:103300002048000072730000206600006f72000009
:103310006d610000743a0000206900006e2000001a
:1033200044650000636900006d6100006c200000ce
:103330002d20000068680000293a0000000d000000
:103340000a4500006e7400006572000020740000e1
:103350006865000020530000746100007274000072
:10336000546900006d650000202d0000204d000014
:10337000696e000075740000652000002869000077
:103380006e20000044650000636900006d6100006c
:103390006c2900003a0000000d0a0000456e000094
:1033a0007465000072200000746800006520000051
:1033b0004475000072610000746900006f6e0000c7
:1033c000496e00004d6900006e75000074650000d4
:1033d00073200000286900006e200000486500008e
:1033e00078290000202800003220000042790000e7
:1033f0007465000073290000000d00000a450000fc
:103400006e740000657200002074000068650000a2
:103410002054000069650000722000005661000021
:103420006c7500006520000028660000726f0000c7
:103430006d20000030310000207400006f2000007b
:1034400030360000293a0000000d00000a45000057
:103450006e74000065720000207400006865000052
:103460002052000061740000652000004c610000e3
:10347000626500006c2000004c6500006e67000073
:1034800074680000202800004d61000078200000d2
:1034900031310000204300006861000072610000cb
:1034a0006374000065720000732900002849000061
:1034b0006e200000486500007829000020280000e8
:1034c000312000004279000074650000293a0000b4
:1034d000000d00000a4500006e74000065720000d7
:1034e0002074000068650000205200006174000034
:1034f000652000004c610000626500006c20000047
:103500003a0000000d0a0000456e000074650000de
:10351000722000007468000065200000436c000009
:10352000757300007465000072490000642000009b
:10353000286900006e20000048650000782900001e
:1035400020280000324200007974000065730000fa
:10355000293a0000000d00000a4500006e740000ca
:1035600065720000207400006865000020610000a2
:1035700074740000726900006275000074650000d8
:103580004964000020280000696e00002048000007
:103590006578000029200000283200002042000049
:1035a0007974000065730000293a0000000d0000e6
:1035b0000a4500006e74000065720000207400006f
:1035c000686500002041000074740000726900000a
:1035d0006275000074650000204400006174000002
:1035e0006120000054790000706500002869000027
:1035f0006e200000486500007829000020280000a7
:10360000312000004279000074650000293a000072
:10361000000d00000a4500006e7400006572000095
:1036200020740000686500002061000074740000d0
:10363000726900006275000074650000204400009b
:1036400061740000612000006c6500006e6700007e
:1036500074680000286900006e20000048650000c2
:103660007829000020280000312000004279000065
:1036700074650000293a0000000d00000a450000b2
:103680006e74000065720000207400006865000020
:10369000206100007474000072690000627500000f
:1036a0007465000020440000617400006120000087
:1036b0003a0000000d0a0000456e0000746500002d
:1036c000722000007468000065200000446500005e
:1036d00073740000696e000061740000696f00007f
:1036e0006e200000416400006472000065730000f9
:1036f00073280000696e0000204800006578000013
:10370000292800003820000042790000746500007c
:1037100073290000293a0000000d00000a4500004e
:103720006e7400006572000020740000686500007f
:103730002044000065730000744500006e640000c2
:10374000706f0000696e0000743a0000000d000008
:103750000a300000303d0000446900007361000041
:10376000626c0000652000004a6f0000696e000076
:103770002c200000464600003d4500006e61000020
:10378000626c0000652c000020580000583d0000cd
:10379000546900006d650000642800007365000036
:1037a00063290000203a0000200000000d0a0000fc
:1037b000456e000074650000722000004465000042
:1037c00073740000696e000061740000696f00008e
:1037d0006e200000536800006f720000742000002b
:1037e00041640000647200006573000073200000f3
:1037f000283200002d62000079740000657300001b
:10380000292000003a200000000d00000a530000ab
:10381000657400002074000068650000204400000a
:1038200065730000746900006e6100007469000037
:103830006f6e0000204500006e6400002050000004
:103840006f6900006e740000203a00002000000044
:103850004465000073740000696e0000617400002c
:10386000696f00006e200000416400006472000077
:1038700065730000732000006f6600002052000096
:103880006571000075650000737400003a20000047
:10389000000d00000a4500006e7400006572000013
:1038a000207400006865000020640000657300005b
:1038b000746900006e610000746900006f6e0000a2
:1038c00020610000646400007265000073730000f2
:1038d0003a0000000d0a0000456e0000746500000b
:1038e00072200000436c00007573000074650000d6
:1038f00072200000496400003a200000000d000022
:103900000a30000030300000302000003a20000073
:103910004261000073690000632000003030000045
:1039200030410000203a000020540000696d000082
:10393000650000000d0a0000456e0000746500007f
:103940007220000074680000652000006e750000a1
:103950006d62000065720000206f000066200000ac
:1039600061740000747200006962000075740000e8
:1039700065730000207400006f2000006265000085
:103980002072000065610000642000003a00000021
:103990000d0a0000456e00007465000072200000f2
:1039a00074680000652000006174000074720000fb
:1039b0006962000075740000652000006964000001
:1039c000730000000d0a00000d0a0000466f0000a1
:1039d0007220000042610000736900006320000053
:1039e000436c00007573000074650000723a0000bb
:1039f000000d00000a30000030300000303a0000b6
:103a00002041000070700000205600006572000028
:103a1000000d00000a30000030300000333a000092
:103a200020480000617200006477000061720000ad
:103a30006520000056650000720000000d0a0000bd
:103a400030300000313000003a2000004c6f0000a0
:103a500063610000746900006f6e00002044000084
:103a600065730000630000000d0a00000d0a0000ed
:103a7000466f000072200000546900006d65000070
:103a8000204300006c750000737400006572000034
:103a90003a0000000d0a0000303000003030000015
:103aa0003a200000546900006d650000000d000020
:103ab0000a30000030300000313a0000205400008d
:103ac000696d0000655300007461000074750000aa
:103ad000730000000d0a000030300000303200009a
:103ae0003a200000546900006d6500005a6f000024
:103af0006e650000000d00000a300000303000004c
:103b0000333a000020440000737400005374000036
:103b100061720000740000000d0a000030300000e7
:103b2000303400003a200000447300007445000067
:103b30006e640000000d00000a300000303000000c
:103b4000353a000020440000737400005368000000
:103b500069660000740000000d0a000030300000ab
:103b6000303600003a20000053740000616e0000ff
:103b70006461000072640000546900006d6500001b
:103b8000000d00000a30000030300000373a00001d
:103b9000204c00006f630000616c0000546900005d
:103ba0006d6500000d0a0000000d00000a450000d0
:103bb0006e740000657200002074000068650000eb
:103bc0002064000065730000742000006164000040
:103bd000647200003a0000000d0a00000d0a0000a7
:103be0003037000030320000202d0000204d000052
:103bf0006574000065720000696e000067200000b7
:103c0000436c0000757300007465000072000000d2
:103c10000d0a00003030000030300000202d000080
:103c2000204200006173000069630000204300002f
:103c30006c7500007374000065720000000d0000d8
:103c40000a4500006e74000065720000206f0000dd
:103c50006e650000206f00006620000074680000a0
:103c600065200000616200006f76000065200000a2
:103c7000436c000075730000746500007249000019
:103c8000443a0000000d00000a0d00000a46000042
:103c90006f720000204d0000657400006572000026
:103ca000696e000067200000436c0000757300001f
:103cb00074650000723a0000000d00000a30000038
:103cc00030300000302000002d200000437500003f
:103cd00072720000656e000074530000756d000084
:103ce0006d610000746900006f6e000044650000a3
:103cf0006c6900007665000072650000643a00009f
:103d0000000d00000a3000003130000030200000bb
:103d10002d2000004375000072720000656e0000e7
:103d20007454000069650000723100005375000092
:103d30006d6d000061740000696f00006e4400004a
:103d4000656c000069760000657200006564000023
:103d50003a0000000d0a0000303000003030000052
:103d6000202d000020420000617300006963000004
:103d70005665000072730000696f00006e3a000023
:103d8000000d00000a30000030300000312000003b
:103d90002d20000041700000706c0000696300007d
:103da00061740000696f00006e56000065720000cb
:103db000736900006f6e00003a0000000d0a0000f9
:103dc0000d0a0000456e00007465000072200000be
:103dd0006f6e0000652000006f6600002074000018
:103de0006865000020610000626f000076650000d9
:103df00020410000747400007269000062750000c8
:103e000074650000494400002062000061730000f6
:103e100065640000206f00006e200000436c00000d
:103e20007573000074650000723a0000000d000018
:103e30000a3200003520000028430000757200009f
:103e4000726500006e740000537500006d6d000017
:103e500061740000696f00006e440000656c000032
:103e6000697600006572000065640000202600008d
:103e70002043000075720000726500006e7400003f
:103e8000546900006572000031530000756d000038
:103e90006d610000746900006f6e000044650000f1
:103ea0006c690000766500007265000064290000fe
:103eb000000d00000a3200003020000028420000ff
:103ec00061730000696300005665000072730000b2
:103ed000696f00006e200000262000004170000085
:103ee000706c00006963000061740000696f00007d
:103ef0006e56000065720000736900006f6e00006e
:103f0000290000000d0a00000d0a0000456e0000a7
:103f100074650000722000006f6e000065200000d4
:103f20006f660000207400006865000020610000da
:103f3000626f00007665000020410000747400008c
:103f40007269000062750000746500004461000041
:103f50007461000054790000706500003a000000b0
:103f60000d0a0000456e000074650000722000001c
:103f700074680000652000004d6900006e69000053
:103f80006d7500006d200000496e00007465000032
:103f900072760000616c00002028000032200000d2
:103fa0004279000074650000732900003a000000a7
:103fb0000d0a0000456e00007465000072200000cc
:103fc000766100006c690000642000004d61000013
:103fd000786900006d7500006d200000496e0000da
:103fe0007465000072760000616c000020760000ad
:103ff000616c000075650000207400006f200000f7
:1040000072650000706f000072740000206f000085
:104010007220000046460000464600002074000062
:104020006f200000537400006f70000020610000da
:104030006c7200006561000064790000207200006d
:10404000657000006f720000746900006e67000008
:10405000206500006e74000072790000000d000001
:104060000a4500006e7400006572000020740000b4
:1040700068650000204d000061780000696d000057
:10408000756d0000204900006e740000657200002c
:10409000766100006c200000283200002042000001
:1040a0007974000065730000293a0000000d0000db
:1040b0000a0d00000a4600006f720000204d00004b
:1040c0006574000065720000696e000067200000e2
:1040d000436c0000757300007465000072200000de
:1040e0002d20000036200000427900007465000099
:1040f00020560000616c000075650000000d000096
:104100000a4600006f720000204200006173000048
:1041100069630000204300006c75000073740000a8
:1041200065720000202d00002031000020420000b8
:104130007974000065200000566100006c75000075
:10414000650000000d0a0000456e00007465000067
:1041500072200000746800006520000052650000b5
:10416000706f000072740000616200006c650000f6
:1041700020430000686100006e670000653a00009f
:10418000000d00000a4500006e740000657200001a
:104190002074000068650000206400006573000062
:1041a0007420000061640000647200002028000098
:1041b000556e000069630000617300007420000008
:1041c0006f72000020470000726f000075700000e1
:1041d000293a0000000d00000a4500006e7400003e
:1041e00065720000204d00006f6400006520000033
:1041f0006f66000020540000726100006e730000c2
:104200006d69000073730000696f00006e2000008c
:104210002830000031200000666f0000722000008e
:10422000477200006f750000702c00002030000005
:1042300032200000666f000072200000556e000002
:104240006963000061730000742900003a000000f7
:104250000d0a0000456e0000746500007220000029
:104260007468000065200000457800007465000057
:104270006e64000065640000504100004e4900007b
:1042800064200000696e000020480000657800008e
:104290003a0000000d0a0000456e00006420000096
:1042a0006f660000204300006f6d00006d69000024
:1042b00073730000696f00006e6900006e67000094
:1042c000204400006174000061200000456e000081
:1042d00074720000792000000d0a0000000d00003b
:1042e0000a300000313a00002052000065730000df
:1042f0006574000020430000757200007420000007
:1043000053410000533a0000000d00000a30000045
:10431000323a00002052000065730000657400000e
:10432000204100006c6c000020530000415300004d
:104330003a0000000d0a0000303400003a2000006e
:10434000457200006173000065200000496e0000a6
:1043500064650000783a0000000d00000a45000086
:104360006e74000065720000207400006865000033
:10437000204f000070740000696f00006e3a00006a
:10438000000d00000a4500006e7400006572000018
:104390002074000068650000204c0000656e00007d
:1043a000206f000066200000746800006520000097
:1043b0004d730000673a0000000d00000a45000040
:1043c0006e740000657200002074000068650000d3
:1043d000204d0000736700003a0000000d0a000045
:1043e000456e0000746500007220000074680000d3
:1043f000652000005469000065720000204900003b
:104400006e6600006f28000030310000207400004c
:104410006f20000030360000293a0000000d000037
:104420000a4500006e7400006572000020740000f0
:1044300068650000206400006573000074200000bf
:104440006164000064720000206d00006f64000071
:10445000653a0000000d00000a300000323a00000a
:1044600020530000686f00007274000020410000bb
:1044700064640000720000000d0a00003033000088
:104480003a20000045780000746500006e6400006a
:10449000656400002041000064640000723a00007e
:1044a000000d00000a4500006e74000065720000f7
:1044b000207400006865000020640000657300003f
:1044c00074200000504100004e20000049640000ac
:1044d00020280000322000004279000074650000ae
:1044e000732900003a0000000d0a0000456e00002c
:1044f00074650000722000007468000065200000f0
:104500004c6500006e2000006f6600002074000003
:1045100068650000204d000073670000202800003f
:104520004d6100007820000031340000204300007d
:1045300068610000722900003a0000000d0a0000c6
:10454000496e0000766100006c6900006420000084
:104550004d730000672000004c6500006e6700008e
:1045600074680000000d00000a4500006e74000031
:10457000657200002074000068650000205400008f
:104580006965000072200000496e0000666f00003f
:104590003a0000000d0a0000546900006572000036
:1045a0003128000030310000292000002d200000bb
:1045b00054690000657200003628000030360000a3
:1045c000290000000d0a0000536500006c65000022
:1045d00063740000206100006e790000206f00000d
:1045e0006e650000206f0000662000007468000007
:1045f000652000006f700000746900006f6e00009d
:104600003a0000000d0a0000456e000074650000cd
:1046100072200000746800006520000047720000ee
:104620006f7500007020000061640000647200007b
:104630003a0000000d0a0000456e0000746500009d
:104640007220000074680000652000004c650000c6
:104650006e67000074680000206f00006620000094
:1046600074680000652000004e6100006d65000068
:104670002053000074720000696e00006720000083
:1046800028310000204200007974000065200000fd
:10469000696e00002048000065780000293a00009b
:1046a000000d00000a4500006e74000065720000f5
:1046b0002074000068650000204e0000616d00005d
:1046c0006520000053740000726900006e670000ee
:1046d000202800004d6100007820000031360000e5
:1046e00020430000686100007261000063740000f4
:1046f00065720000732900003a0000000d0a0000f6
:10470000456e0000746500007220000074680000af
:1047100065200000477200006f75000070200000e7
:10472000436f0000756e0000742000002831000007
:104730002042000079740000652900003a00000062
:104740000d0a0000456e0000746500007220000034
:1047500074680000652000004c690000737400005c
:10476000206f000066200000477200006f75000097
:104770007020000041640000647200006573000056
:1047800073650000732000003a0000000d0a00006d
:10479000456e00007465000072200000746800001f
:1047a00065200000477200006f7500007020000057
:1047b0004944000020280000322000004279000017
:1047c00074650000293a0000000d00000a45000051
:1047d0006e740000657200002074000068650000bf
:1047e00020530000636500006e6500002049000052
:1047f00044200000283100002042000079740000ad
:10480000652900003a0000000d0a0000456e000016
:1048100074650000722000007468000065200000cc
:1048200054720000616e000073690000746900003a
:104830006f6e000020540000696d000065200000cc
:1048400028320000204200007974000065730000e7
:10485000293a0000000d00000a4500006e740000b7
:10486000657200002074000068650000204c0000a4
:10487000656e000067740000682000006f6600002d
:10488000207400006865000020530000636500008c
:104890006e650000204e0000616d00006520000084
:1048a00028310000207400006f2000003136000025
:1048b000293a0000000d00000a4500006e74000057
:1048c000657200002074000068650000204e000042
:1048d000756d000062650000722000006f660000c8
:1048e0002045000078740000656e000073690000c8
:1048f0006f6e000020460000696500006c640000d7
:10490000732000007265000071750000697200007c
:10491000656400003a0000000d0a0000456e0000ca
:1049200074650000722000007468000065200000bb
:10493000436c00007573000074650000724900004c
:10494000443a0000000d00000a4500006e740000ab
:10495000657200002074000068650000204c0000b3
:10496000656e000067740000683a0000000d0000ea
:104970000a4500006e74000065720000207400009b
:10498000686500002045000078740000656e000036
:10499000736900006f6e000020460000696500002a
:1049a0006c64000020560000616c0000756500001a
:1049b000733a0000000d00000a4500006e7400000c
:1049c0006572000020740000686500002047000048
:1049d000726f00007570000020490000442800003c
:1049e0003220000042790000746500007329000045
:1049f0003a0000000d0a0000456e000074650000da
:104a000072200000746800006520000053630000fd
:104a1000656e000065200000494400002831000058
:104a20002042000079740000652900003a0000006f
:104a30000d0a0000456e0000746500007220000041
:104a4000746800006520000041740000747200006a
:104a50006962000075740000652000004944000090
:104a6000000d00000a30000030310000313a000033
:104a7000204f00006363000075700000696500004e
:104a8000644300006f6f00006c6900006e670000f7
:104a900053650000745000006f6900006e740000e0
:104aa000000d00000a30000030310000323a0000f2
:104ab000204f00006363000075700000696500000e
:104ac0006448000065610000746900006e670000c2
:104ad00053650000745000006f6900006e740000a0
:104ae000000d00000a30000030310000433a0000a1
:104af0002053000079730000746500006d4d0000c4
:104b00006f640000650000000d0a0000536500009e
:104b10006c65000063740000206100006e79000085
:104b2000206f00006620000074680000652000000f
:104b3000616200006f760000652000006f72000067
:104b4000206100006e790000206f000066200000e8
:104b5000796f00007572000020630000686f00002c
:104b600069630000653a0000000d00000a4500007e
:104b70006e7400006572000020740000686500001b
:104b8000204300006c750000737400006572000023
:104b900020490000440000000d0a000030320000ef
:104ba00030310000202d0000206600006f720000f0
:104bb0002054000068650000726d00006f730000f3
:104bc0007461000074200000436c000075730000e5
:104bd00074650000720000000d0a000053650000bb
:104be0006c650000637400002074000068650000bc
:104bf00020610000626f000076650000206f0000f9
:104c000072200000616e0000792000006f660000d5
:104c1000207900006f7500007220000063680000ba
:104c20006f690000636500003a0000000d0a000093
:104c3000536800006f72000074200000416400009f
:104c40006472000065730000732000006f6600004e
:104c500020450000535000003a0000000d0a0000fb
:104c6000536800006f72000074200000416400006f
:104c70006472000065730000732000006f6600001e
:104c8000204d000065740000657200003a000000cd
:104c90000d0a0000456e00007465000072200000df
:104ca000612000006d6500006e750000206300004b
:104cb000686f000069630000653a00002000000092
:104cc0000d0a000053450000515f00004d450000f3
:104cd00054450000525f0000494e0000464f00005e
:104ce0005f4300004d4400005f5300004552000048
:104cf000494100004c5f00004e5500004d4200004d
:104d000045520000090900000909000009090000d6
:104d10003030000030300000000d00000a53000069
:104d2000455100005f4d0000455400004552000011
:104d30005f4900004e4600004f5f0000434d0000f9
:104d4000445f00004d4100004b4500005f43000000
:104d50004f4400004509000009090000090900004e
:104d6000090900003030000030310000000d000063
:104d70000a530000455100005f4300004f4d000002
:104d8000555f0000414300005449000056450000b3
:104d90005f4500004e45000052470000595f00008b
:104da000434d0000445f0000434f00004d5500009c
:104db0005f4100004354000049560000455f000079
:104dc000454e000045520000475900000909000007
:104dd0003031000030300000000d00000a530000a8
:104de000455100005f4300004f4d0000555f00003b
:104df0004143000054490000564500005f45000053
:104e00004e45000052470000595f0000434d00002e
:104e1000445f0000434f00004d5500005f4100001b
:104e20004354000049560000455f0000454e000015
:104e300045520000475900005f4d00003109000055
:104e40000930000031300000310000000d0a000080
:104e500053450000515f0000434f00004d550000d6
:104e60005f4100004354000049560000455f0000c8
:104e7000454e000045520000475900005f430000c6
:104e80004d4400005f4300004f4d0000555f00009f
:104e90004143000054490000564500005f450000b2
:104ea0004e45000052470000595f00004d3200009f
:104eb000090900003031000030320000000d000010
:104ec0000a530000455100005f4300004f4d0000b1
:104ed000555f000041430000544900005645000062
:104ee0005f4500004e45000052470000595f00003a
:104ef000434d0000445f0000434f00004d5500004b
:104f00005f4100004354000049560000455f000027
:104f1000454e000045520000475900005f4d00001b
:104f20003309000009300000313000003300000078
:104f30000d0a000053450000515f0000434f000080
:104f40004d5500005f4100004354000049560000e9
:104f5000455f0000454e00004552000047590000e3
:104f60005f4300004d4400005f4300004f4d0000d0
:104f7000555f0000414300005449000056450000c1
:104f80005f4500004e45000052470000595f000099
:104f90004d340000090900003031000030340000b9
:104fa000000d00000a530000455100005f4300005f
:104fb0004f4d0000555f0000414300005449000080
:104fc000564500005f4500004e4500005247000076
:104fd000595f0000434d0000445f0000434f000054
:104fe0004d5500005f410000435400004956000049
:104ff000455f0000454e0000455200004759000043
:105000005f4d00003509000009300000313000001c
:10501000350000000d0a000053450000515f0000fc
:10502000434f00004d5500005f4100004354000015
:1050300049560000455f0000454e00004552000003
:10504000475900005f4300004d4400005f430000eb
:105050004f4d0000555f00004143000054490000df
:10506000564500005f4500004e45000052470000d5
:10507000595f00004d360000090900003031000082
:1050800030360000000d00000a53000045510000ba
:105090005f4d0000415800005f440000454d000096
:1050a000414e0000445f0000434d0000445f00009b
:1050b0004d410000585f0000444500004d41000094
:1050c0004e4400005f4300005552000009090000f3
:1050d00009090000093000003230000030000000f3
:1050e0000d0a000053450000515f00004d410000d3
:1050f000585f0000444500004d4100004e44000050
:105100005f4300004d4400005f4d00004158000027
:105110005f440000454d0000414e0000445f000028
:1051200043550000525f0000544900004d45000007
:105130000909000009090000303200003031000088
:10514000000d00000a530000455100005f4d0000b3
:10515000415800005f440000454d0000414e0000f2
:10516000445f0000434d0000445f00004d410000db
:10517000585f0000444500004d4100004e440000cf
:105180005f4d000031090000090900000909000015
:105190000930000032300000320000000d0a00002b
:1051a00053450000515f00004d410000585f000072
:1051b000444500004d4100004e4400005f430000a4
:1051c0004d4400005f4d0000415800005f44000066
:1051d000454d0000414e0000445f00004d3100008d
:1051e0005f540000494d0000450900000909000016
:1051f0000930000032300000330000000d0a0000ca
:1052000053450000515f00004d410000585f000011
:10521000444500004d4100004e4400005f43000043
:105220004d4400005f4d0000415800005f44000005
:10523000454d0000414e0000445f00004d3200002b
:1052400009090000090900000909000030320000c6
:1052500030340000000d00000a53000045510000ea
:105260005f4d0000415800005f440000454d0000c4
:10527000414e0000445f0000434d0000445f0000c9
:105280004d410000585f0000444500004d410000c2
:105290004e4400005f4d0000325f000054490000a2
:1052a0004d450000090900000909000030320000e6
:1052b00030350000000d00000a5300004551000089
:1052c0005f4d0000415800005f440000454d000064
:1052d000414e0000445f0000434d0000445f000069
:1052e0004d410000585f0000444500004d41000062
:1052f0004e4400005f4d0000330900000909000022
:1053000009090000093000003230000036000000ba
:105310000d0a000053450000515f00004d410000a0
:10532000585f0000444500004d4100004e4400001d
:105330005f4300004d4400005f4d000041580000f5
:105340005f440000454d0000414e0000445f0000f6
:105350004d3300005f540000494d00004509000036
:105360000909000009300000323000003700000059
:105370000d0a000053450000515f00004d41000040
:10538000585f0000444500004d4100004e440000bd
:105390005f4300004d4400005f4d00004158000095
:1053a0005f440000454d0000414e0000445f000096
:1053b0004d34000009090000090900000909000036
:1053c0003032000030380000000d00000a530000a9
:1053d000455100005f4d0000415800005f4400004f
:1053e000454d0000414e0000445f0000434d000069
:1053f000445f00004d410000585f0000444500003c
:105400004d4100004e4400005f4d0000345f00003d
:10541000544900004d450000090900000909000039
:105420003032000030390000000d00000a53000047
:10543000455100005f4d0000415800005f440000ee
:10544000454d0000414e0000445f0000434d000008
:10545000445f00004d410000585f000044450000db
:105460004d4100004e4400005f4d00003509000032
:10547000090900000909000009300000323000006d
:10548000610000000d0a000053450000515f00005c
:105490004d410000585f0000444500004d410000b0
:1054a0004e4400005f4300004d4400005f4d00008b
:1054b000415800005f440000454d0000414e00008f
:1054c000445f00004d3500005f540000494d00006e
:1054d00045090000090900000930000032300000d1
:1054e000620000000d0a000053450000515f0000fb
:1054f0004d410000585f0000444500004d41000050
:105500004e4400005f4300004d4400005f4d00002a
:10551000415800005f440000454d0000414e00002e
:10552000445f00004d360000090900000909000031
:10553000090900003032000030630000000d000057
:105540000a530000455100005f4d00004158000023
:105550005f440000454d0000414e0000445f0000e4
:10556000434d0000445f00004d410000585f0000c3
:10557000444500004d4100004e4400005f4d0000d6
:10558000365f0000544900004d4500000909000045
:10559000090900003032000030640000000d0000f6
:1055a0000a530000455100005f540000414d0000c7
:1055b00050450000525f0000494e0000464f000079
:1055c0005f4300004d4400005f540000414d000067
:1055d00050450000525f0000525000005f52000032
:1055e0004e5f0000535400005f31000009090000c5
:1055f000090900003033000030300000000d0000c9
:105600000a530000455100005f540000414d000066
:1056100050450000525f0000494e0000464f000018
:105620005f4300004d4400005f540000414d000006
:1056300050450000525f0000525000005f520000d1
:105640004e5f0000535000005f3100000909000068
:10565000090900003033000031300000000d000067
:105660000a530000455100005f540000414d000006
:1056700050450000525f0000494e0000464f0000b8
:105680005f4300004d4400005f540000414d0000a6
:1056900050450000525f0000525000005f52000071
:1056a0004e5f0000535400005f3200000909000003
:1056b000090900003033000030310000000d000007
:1056c0000a530000455100005f540000414d0000a6
:1056d00050450000525f0000494e0000464f000058
:1056e0005f4300004d4400005f540000414d000046
:1056f00050450000525f0000525000005f52000011
:105700004e5f0000535000005f32000009090000a6
:10571000090900003033000031310000000d0000a5
:105720000a530000455100005f540000414d000045
:1057300050450000525f0000494e0000464f0000f7
:105740005f4300004d4400005f540000414d0000e5
:1057500050450000525f0000525000005f520000b0
:105760004e5f0000535400005f3300000909000041
:10577000090900003033000030320000000d000045
:105780000a530000455100005f540000414d0000e5
:1057900050450000525f0000494e0000464f000097
:1057a0005f4300004d4400005f540000414d000085
:1057b00050450000525f0000525000005f52000050
:1057c0004e5f0000535000005f33000009090000e5
:1057d000090900003033000031320000000d0000e4
:1057e0000a530000455100005f540000414d000085
:1057f00050450000525f0000494e0000464f000037
:105800005f4300004d4400005f540000414d000024
:1058100050450000525f0000525000005f520000ef
:105820004e5f0000535400005f340000090900007f
:10583000090900003033000030330000000d000083
:105840000a530000455100005f540000414d000024
:1058500050450000525f0000494e0000464f0000d6
:105860005f4300004d4400005f540000414d0000c4
:1058700050450000525f0000525000005f5200008f
:105880004e5f0000535000005f3400000909000023
:10589000090900003033000031330000000d000022
:1058a0000a530000455100005f540000414d0000c4
:1058b00050450000525f0000494e0000464f000076
:1058c0005f4300004d4400005f540000414d000064
:1058d00050450000525f0000525000005f5200002f
:1058e0004e5f0000535400005f35000009090000be
:1058f000090900003033000030340000000d0000c2
:105900000a530000455100005f540000414d000063
:1059100050450000525f0000494e0000464f000015
:105920005f4300004d4400005f540000414d000003
:1059300050450000525f0000525000005f520000ce
:105940004e5f0000535000005f3500000909000061
:10595000090900003033000031340000000d000060
:105960000a530000455100005f540000414d000003
:1059700050450000525f0000494e0000464f0000b5
:105980005f4300004d4400005f540000414d0000a3
:1059900050450000525f0000525000005f5200006e
:1059a0004e5f0000535400005f36000009090000fc
:1059b000090900003033000030350000000d000000
:1059c0000a530000455100005f540000414d0000a3
:1059d00050450000525f0000494e0000464f000055
:1059e0005f4300004d4400005f540000414d000043
:1059f00050450000525f0000525000005f5200000e
:105a00004e5f0000535000005f360000090900009f
:105a1000090900003033000031350000000d00009e
:105a20000a530000455100005f540000414d000042
:105a300050450000525f0000494e0000464f0000f4
:105a40005f4300004d4400005f540000414d0000e2
:105a500050450000525f0000525000005f520000ad
:105a60004e5f0000535400005f370000090900003a
:105a7000090900003033000030360000000d00003e
:105a80000a530000455100005f540000414d0000e2
:105a900050450000525f0000494e0000464f000094
