:020000040000fa
:080000000002040000000000f2
:020000040000fa
:10000800fc030000fc0300001e6e0200fc0300005d
:10001800fc030000fc030000fc030000fc030000dc
:10002800fc030000fc030000fc030000fc030000cc
:10003800fc030000fc030000fc030000fc030000bc
:10004800fc030000fc030000fc030000d4020000d5
:1000580026030000fc030000fc030000fc03000072
:10006800fc030000fc030000fc030000fc0300008c
:1000780060410200fc030000fc030000fc030000d8
:10008800fc030000fc030000fc030000fc0300006c
:10009800fc030000fc030000fc030000fc0300005c
:1000a800fc030000fc030000fc030000fc0300004c
:1000b800fc030000fc030000fc030000fc0300003c
:1000c800fc030000fc030000fc030000fc0300002c
:1000d800fc030000fc030000fc030000fc0300001c
:1000e800fc030000fc030000fc030000fc0300000c
:1000f800fc030000fc030000fc030000fc030000fc
:10010800fc030000fc030000fc030000fc030000eb
:10011800fc030000fc030000fc030000fc030000db
:10012800fc030000fc030000fc030000fc030000cb
:10013800fc030000fc030000fc030000fc030000bb
:10014800fc030000fc030000fc030000fc030000ab
:10015800fc030000fc030000fc030000fc0300009b
:10016800fc030000fc030000fc030000fc0300008b
:10017800fc030000fc030000fc030000fc0300007b
:10018800fc030000fc030000fc030000fc0300006b
:10019800fc030000fc030000fc030000fc0300005b
:1001a800fc030000fc030000fc030000fc0300004b
:1001b800fc030000fc030000fc030000fc0300003b
:1001c800fc030000fc030000fc030000fc0300002b
:1001d800fc030000fc030000fc030000fc0300001b
:1001e800fc030000fc030000fc030000fc0300000b
:0801f800fc030000fc03000001
:020000040000fa
:10020800fc030000fc0300001e6e0200fc0300005b
:10021800fc030000fc030000fc030000fc030000da
:10022800fc030000fc030000fc030000fc030000ca
:10023800fc030000fc030000fc030000fc030000ba
:10024800fc030000fc030000fc030000d4020000d3
:1002580026030000fc030000fc030000fc03000070
:10026800fc030000fc030000fc030000fc0300008a
:1002780060410200fc030000fc030000fc030000d6
:10028800fc030000fc030000fc030000fc0300006a
:10029800fc030000fc030000fc030000fc0300005a
:1002a800fc030000fc030000fc030000fc0300004a
:1002b800fc030000fc030000fc030000fc0300003a
:1002c800fc030000fc030000fc030000fc0300002a
:1002d800fc030000fc030000fc030000fc0300001a
:1002e800fc030000fc030000fc030000fc0300000a
:1002f800fc030000fc030000fc030000fc030000fa
:10030800fc030000fc030000fc030000fc030000e9
:10031800fc030000fc030000fc030000fc030000d9
:10032800fc030000fc030000fc030000fc030000c9
:10033800fc030000fc030000fc030000fc030000b9
:10034800fc030000fc030000fc030000fc030000a9
:10035800fc030000fc030000fc030000fc03000099
:10036800fc030000fc030000fc030000fc03000089
:10037800fc030000fc030000fc030000fc03000079
:10038800fc030000fc030000fc030000fc03000069
:10039800fc030000fc030000fc030000fc03000059
:1003a800fc030000fc030000fc030000fc03000049
:1003b800fc030000fc030000fc030000fc03000039
:1003c800fc030000fc030000fc030000fc03000029
:1003d800fc030000fc030000fc030000fc03000019
:1003e800fc030000fc030000fc030000fc03000009
:0803f800fc030000fc030000ff
:020000040000fa
:100400006fdf23000e7f24000e0188000000000033
:100410000c000700c0c822002100200011000700c6
:10042000000020000000e000020032000000020096
:100430000000000024510200020000000040da0029
:100440000000fe004440a900808925000000e00073
:100450000300320000002000a00188004440a800f2
:100460000000060091018800800078000000eb0089
:1004700015003700e280400032a0b4009101ba00bc
:10048000e280400032a0b4009102ba00e280400055
:1004900032a0b4000002eb00472bde00f507b200eb
:1004a000602ce10004003a000059eb008301e900f0
:1004b000fdff3e00040037006128e100010032002a
:1004c0000082eb00040007001101ba000200e00006
:1004d000e8ff3a00000006003159ba008301e90044
:1004e0000c0032002159ba008301e90008003200f3
:1004f0000400e00003003a00e280400032a0b400b3
:10050000f5ff370011d9ba008301e900faff3a007c
:100510008100e800e180400032a0b4000000060045
:100520008ae7040001000000dae90400010000008d
:10053000aced0400010000005eea040001000000d0
:100540000ced040001000000186f04000200000020
:100550005e6c040002000000206a0400020000003b
:100560000c6604000200000010710400020000008c
:100570006c67040002000000c6680400020000006e
:10058000426b040002000000be6f04000200000085
:10059000326f0400020000009c64040002000000ae
:1005a000f6620400020000003600f800809fbe00e2
:1005b000829fbe00849fbe00861f78003400f80032
:1005c00000002000a0018800c27b2200330620002a
:1005d0000282e9000283e800450620000d00370092
:1005e000301180008560a90092007800838f500050
:1005f00008003c000109e8009400780000f378004e
:100600008100e800110009008500d8008000fd008d
:10061000000a78002202ab00f1ff3a0010118000be
:100620006e0060000200320010ff2f002222b60090
:100630003400f9004f0378004f02be004f01be00a6
:100640004f00be003600f900004006003600f800fa
:10065000809fbe00829fbe003400f8000000200092
:10066000a00188008580a90030418100e00f500082
:1006700010003200618222008008e900648050008e
:1006800010017800e6004100e0c078008180fb00a6
:10069000211188000201e80043062000801f780035
:1006a000110009000301d8004f007800010878000c
:1006b000020037000000eb00604489003400f900bc
:1006c0004f01be004f00be003600f900004006009a
:1006d000e03d810000000600c07b22008000eb00ae
:1006e000908f1000fdff3200817b22001101780005
:1006f00066004100614078000201e80043062000e6
:10070000809fbe00110009000301d800010178009c
:100710004f00be0082087800e48040009108e900a4
:10072000000006006282220031062000928f100035
:10073000feff3c004182220011017800e48140006c
:10074000807179000201e80043062000811f7800d3
:10075000110009000301d80001007800cf007800e3
:10076000800878000180e8001008e80060448100fb
:10077000e00f500003003a001000200060448900a0
:100780008580a800000006009560a9009580a9005a
:10079000900120004011880021e2a8002342a80017
:1007a000628222000000eb00000978008280e900ec
:1007b000920878009100780011418900c27b2200e4
:1007c000000978008280e9009208780091007800a2
:1007d000c13d8900604489009560a8009580a8000b
:1007e00000000600e03d81008000ea00008070000b
:1007f0004f00de00000006000040da000000fe00ae
:10080000889fbe0080047800806c8100e00f50005b
:1008100004003a000e0007000084eb00e00f5000d7
:1008200008003500886c8100e08f5400050032001c
:100830000900440006000700e00f500001003d00e1
:100840000084eb00080078004f04be0000000600a2
:10085000e00f500004003a0021d92200816c890089
:1008600080007800060037008080eb0062df230004
:10087000820f500002003e00806c89008000eb0077
:100880000100780000000600020007000400be001e
:10089000000006006022b800060220000000d00020
:1008a0008180d2000482d2008582d2000000a000a4
:1008b0000202520083825a00030031000202420009
:1008c00083824a000000a1000603e900f3ff3a001a
:1008d00000000600889fbe008a9fbe008c1f780023
:1008e0000006eb00e00f5000e08f5800e00f5900c9
:1008f000e08f590007003d006044b8006055b80023
:100900000000540081805c0002015d0083815d0075
:100910001c002000e00f5200e08f5a00e00f5b0047
:10092000e08f5b0007003d006044b8006055b800f0
:100930000402540085825c0006035d0087835d002d
:100940000c00a20073010700e00f56000600320001
:100950006022b8006033b8000000520081805a0065
:1009600002015b0083815b004f0678004f05be00eb
:100970004f04be0000000600889fbe008a9fbe0094
:100980003004be002005be000404440085844c00f1
:1009900006054d0087854d000898be000a90be00f0
:1009a0009500070002003100680040001008e800d0
:1009b0004f05be004f04be0000000600889fbe0029
:1009c0008a9fbe008c1f7800000678003c04be00a1
:1009d0002c05be000400540085805c0006015d000b
:1009e00087815d00009ebe00029ebe0010002000b8
:1009f00081000700010039000000eb001c0e100010
:100a00004f0678004f05be004f04be0000000600f0
:100a10001200fa00889fbe008a9fbe008c9fbe0015
:100a20000205be000004be00e4b79f00f5b79f00ba
:100a300086bf9f0097bf9f000000eb00d0b79f00cc
:100a4000c0b79f00b0b79f00a0b79f0090b79f00ae
:100a500000067800fd032000dfb197004fb097003b
:100a600003814100bfb09700e08f510004003d00ba
:100a7000660007007e805700bfff070003003700b5
:100a8000620007007e805700ccff0700dfb09700b0
:100a9000e08f500007003500140020000500200002
:100aa0006033b80008047200898472000a0573007c
:100ab0008b8573000c06e8008d0f5600e6ff3400ae
:100ac000e08f500006003d006fb29700ffb2970024
:100ad0000fbb97009fbb97007e805700a6ff0700c3
:100ae0005fa89700e00f500004003a001fb4970081
:100af000afb497003fb59700cfb597000800be0090
:100b00000a01be004f06be004f05be004f04be00e6
:100b10000080fa0000000600881f780018002000fe
:100b2000881f7800baff07008f87e9004f0478001c
:100b300000000600801feb00b5ff07008f87e9006b
:100b400000000600889fbe008a9fbe008c1f7800b0
:100b50004e00070005003d005100070009003d0060
:100b60005b0007000006eb00060037005d00070091
:100b700004003d006044b8006055b8005400070010
:100b80001c002000e4ff0700e00f560001003200c7
:100b90005a0007004f0678004f05be004f04be0004
:100ba00000000600889fbe008a9fbe008c1f780050
:100bb0003600070003003d003900070006003d0035
:100bc000040037004700070003003d006044b80000
:100bd0006055b8003e000700d6ff0700e00f560042
:100be00001003200450007004f0678004f05be00a7
:100bf0004f04be00000006000440e10005c8e1000b
:100c000006d0e10007d8e10000000600cf01de00b9
:100c100002817100b2b79f004f09de000000400062
:100c200000007100a0b79f000fb097004f01de00d9
:100c3000818040008100710091b79f007faa9700da
:100c4000cf20de00000040000080700080b79f00d1
:100c50000800be000a01be004f18de000402420078
:100c600000027200f4af9f000804440089844c0025
:100c70000a054d008b854d004fb29700dfb29700fb
:100c80006fb39700ffb3970000000600e00f50001d
:100c9000e08f5800e00f5900e08f59000000060077
:100ca0006044b8006055b8000000540081805c00ca
:100cb00002015d0083815d001c0020000820e1002e
:100cc00009a8e1000ab0e1000bb8e100000006004d
:100cd0000402540085825c0006035d0087835d008a
:100ce000000006000006eb00e00f5200e08f5a0003
:100cf000e00f5b00e08f5b00000006006022b800a0
:100d00006033b8000000520081805a0002015b008d
:100d100083815b0000000600881f780001047800d2
:100d20000100e00005003d0060001000e0801800b8
:100d300002003b0001f02c000300370053000700c5
:100d400008f0a70001f0a0004f04780000000600a2
:100d5000889fbe008a9fbe008c1f78008f0007000e
:100d60009600330003866c006450e10024003200da
:100d70006420e100270032006150e10022003200cf
:100d80006120e100210032008b854200eb07b100b9
:100d90000134b800003ab8000804420089844a00cf
:100da000013ab8000030b8008880400009014a00cc
:100db0000400330000004000818048000201490027
:100dc0008b05e900c909dd008301700001003200d4
:100dd00013002000c814de004814dd004709de00bf
:100de0001200b200c808de0008847000830007000b
:100df00001f0a1000cf0a70001f0a000780037007e
:100e00006120e1007a0032000801be000200be004d
:100e1000f7ff37006150e100fcff3a007400370033
:100e20000001be009b0007000470a70003f0a100b2
:100e300003f8a30013003a006509b1001000320066
:100e4000090035006928e100020035000100280092
:100e50000000050000004000818048008502e90094
:100e6000fcff3a0000000600f88f42000500350044
:100e70008100d1000080d3008502e800fcff3a0029
:100e8000000006008000eb0000000500889fbe0007
:100e90008a9fbe00010578000000e00018003200c3
:100ea0000004be006011b8006b0920000982cf0069
:100eb000020039000882cf000441b00069425200ac
:100ec0000e00320008003b00828171006101640065
:100ed0008904d1000884d3008b05e8000442e800af
:100ee000f9ff3a00050037000804440089844c00eb
:100ef0008b05e9000442e900fbff3a003f000700d0
:100f00004f05be004f04be0000000600f4ff2f0096
:100f100075003700889fbe008a9fbe008c9fbe0070
:100f20000404b8000506b8008904460060854e0038
:100f30000606b8000a054600e0854e000706b80020
:100f40008b054600040eb800890446000a854e0051
:100f5000e0854d00050eb8000a0546008b854e0061
:100f6000060eb8008b0546000416b8000a054600b8
:100f70008b854e000516b8008b054600041eb80090
:100f80008b0546000800be000a01be004f06be00e9
:100f90004f05be004f04be00000006000004be0066
:100fa0003c0007000003be000405be000200be00b6
:100fb00038000700844f7500000006000200be00e4
:100fc0006450e100050036006420e10002003600b4
:100fd0000968a30001003a000800be000160a000fb
:100fe0004f0678004f05be004f04be00000006000b
:100ff000f0ff2f00f1ff2700f9ff370081002000ec
:10100000618055000b003d000b00200061fe2f00a9
:101010000100e1001d003400828171006101640063
:101020008904d1000884d3000000e800faff3a00e8
:101030007100200061006400030070000200600085
:101040000900320061044400e0844c000988a500d6
:10105000050032008b05e8006808e10002003a0054
:101060008904d1000884d300f20f20000258e10067
:1010700005003d00c75ddd00f907b20089807500fd
:1010800008007800000006000bf827008b007800ad
:1010900000000500c70ade00f107b200f50fb2003c
:1010a00008003200e1cf4200020032000170a000cf
:1010b00024000500810f70000100320004080500c3
:1010c00044000500810f700002003a001400050082
:1010d0008502e9000000400081c04800fcff3b00a1
:1010e0000170a00024000500889fbe008a9fbe00fa
:1010f000841f7800a9ff07004f007800110033001b
:10110000f0ff2f00838f6c0006003b000405650094
:101110000a00a7000800370009f0a6001000200010
:1011200008003700820f5400838f5c0003003900f1
:101130001000200001003e000000200009f0a70080
:101140000000ea004f05be004f04be000000e000b2
:1011500000000600e4874700889fbe008a9fbe000b
:101160008c9fbe008e1f780021d222001269810060
:10117000e00f51000b003a006481400012698900c1
:1011800062698900a100980051698900214190009d
:101190000204a000a2409800614190000204a00057
:1011a000e2409800670440004244de004244dd0013
:1011b000516981000002eb002ed9220069df230073
:1011c0008e8454006400440080bf9f00614eb900cb
:1011d000010037008b007800214090006100600022
:1011e000020032000a00370093087800910178006d
:1011f0002340900061006000fbff32000881400046
:10120000828f510002003900e00f540054003d006d
:1012100091057800818f5500eeff3e008e8f5500be
:101220000300390020d22200808f5500e9ff3900e9
:1012300060698100808f50005a003a0020d222005d
:10124000808f550057003a000402e800e10f520079
:10125000e0ff360022002000811f78001100090005
:101260008204d800cf007800800f540005003600bb
:10127000890f5400030031000885e8000a05450085
:10128000140037006142b800b2ff2f0003002000b5
:101290000c0151008d815900820f5200838f5a003a
:1012a0000b003d0092df23000e01510008014100b8
:1012b000809fbe00110009000981d800000178005c
:1012c0004f00be000991b900020578000100370007
:1012d000080578000a00780049fd0700e10f40008a
:1012e00005003a000fbd97000a00780044fd070092
:1012f000e10f40002b003200616981008008780016
:1013000061698100e481400021419000830f500019
:10131000020032000204a000010037000204a10014
:10132000a2409800640555000a0540000a087800ac
:101330006a69890021d22200010d7800626981006a
:10134000a24090000104a00021419800a04090001c
:101350000104a100214098000002eb009dff37002e
:1013600052698900828f5100070036001202be00c8
:101370007469890085698900110978000040eb00d3
:1013800052698100204198005569810085087800e4
:10139000214090000004a000a0409800648040001c
:1013a000010037000000eb004f0778004f06be0039
:1013b0004f05be004f04be004f00b1000000060004
:1013c0006400500050698900a04090000104a10011
:1013d0002140980000000600889fbe008a9fbe0042
:1013e000800478000104780064815400920578003c
:1013f00069f997006101610002003200090078007c
:10140000efff07000800780052ff07000004780093
:10141000e00f54001b003200890f54001900320005
:1014200068bd97000805550042d5de0009805500cb
:101430004280de000a017800800f5500010036006e
:10144000000178004211dd000800be001100070015
:10145000890f54000b0031004255dd000a0544009d
:10146000890f55000700360089045500c2ccde0004
:10147000c24cdd00890444007069810081698100eb
:10148000808cbe00080078004f05be004f04be00ef
:10149000000006008001780002003700b159780092
:1014a000040178000202e900e00f5100fbff3a005e
:1014b00000000600800178000200370081597800a2
:1014c000040178000202e900e00f5100fbff3a003e
:1014d00000000600e68747008e1f7800d0bf9f00ff
:1014e00066875700012f78000e003700dfb997009c
:1014f000134178006fb8970090407800814f5100f9
:10150000040032000280fb008180fb0001005000db
:10151000080037008301e800d3bf9f00000fe800f8
:10152000040178000202e900e00f5100efff3a00e9
:10153000020078004f0778006f00b100000006003d
:020000040000fa
:101540000d0a0000546100006b650000696e000028
:10155000672000004465000066610000756c0000b3
:1015600074200000766100006c7500006573000057
:1015700020660000726f00006d2000007a69000094
:1015800067620000656500002e640000656600006b
:10159000000d00000a4500006e7400006572000036
:1015a0002074000068650000205300007461000092
:1015b0007274000055700000204300006f6e000040
:1015c000747200006f6c0000206900006e20000043
:1015d000486500007820000028300000312d000010
:1015e000466f0000726d0000204e00002f57000073
:1015f0002c200000303200002d4a00006f690000ee
:101600006e2000004e2f0000572900003a00000015
:101610000d0a0000456e0000746500007220000095
:1016200074680000652000005072000065430000ef
:101630006f6e00006669000067750000726500004b
:10164000642000004c6900006e6b0000204b00001d
:1016500065790000207a0000657200006f74000058
:1016600068200000627900007465000020660000b8
:1016700069720000737400003a0000000d0a000057
:10168000456e0000642000006f66000020440000ea
:101690006174000061200000456e0000747200005b
:1016a000792000000d0a0000000d00000a4500002e
:1016b0006e74000065720000207400006865000010
:1016c0002045000078740000656e0000646500002d
:1016d00064500000414e0000496400002069000091
:1016e0006e20000048650000782000003074000083
:1016f000682000004669000072730000743a000020
:10170000000d00000a0000000d0a000053680000f0
:101710006f720000742000004164000064720000d9
:1017200065730000732000006f6600002045000014
:10173000535000003a0000000d0a000053680000fa
:101740006f720000742000004164000064720000a9
:1017500065730000732000006f660000204d0000dc
:1017600065740000657200003a0000000d0a000078
:101770002020000020200000203100003a2000003e
:101780004c6f0000636100006c2000005365000096
:1017900074740000696e0000677300000d0a000099
:1017a0002020000020200000203200003a2000000d
:1017b000476500006e65000072690000632000004c
:1017c000436f00006d6d0000616e000064730000e7
:1017d0000d0a00002020000020200000203300001f
:1017e0003a2000004261000073690000632000009d
:1017f000436c0000757300007465000072200000e7
:10180000436f00006d6d0000616e000064730000a6
:101810000d0a0000202000002020000020340000dd
:101820003a20000049640000656e00007469000001
:1018300066790000204300006c750000737400009e
:1018400065720000204300006f6d00006d610000b4
:101850006e640000730d00000a20000020200000cc
:1018600020200000353a0000204300006f6d00008a
:101870006d69000073730000696f00006e690000fd
:101880006e670000204300006c7500007374000058
:1018900065720000204300006f6d00006d61000064
:1018a0006e640000730d00000a200000202000007c
:1018b00020200000363a0000204d00006573000033
:1018c0007361000067650000204300006c75000034
:1018d0007374000065720000204300006f6d00000b
:1018e0006d6100006e640000730d00000a200000ae
:1018f0002020000020200000373a0000204d00008a
:101900006574000065720000696e000067200000c9
:10191000436c0000757300007465000072200000c5
:10192000436f00006d6d0000616e00006473000085
:101930000d0a0000202000002020000020380000b8
:101940003a2000005072000069630000652000002a
:10195000436c000075730000746500007220000085
:10196000436f00006d6d0000616e00006473000045
:101970000d0a000020200000202000002039000077
:101980003a200000445200004c4300002043000075
:101990006c75000073740000657200002043000045
:1019a0006f6d00006d6100006e640000730d00003b
:1019b0000a2000002020000020200000613a0000e2
:1019c000204900006e740000657200002d50000078
:1019d000414e00000d0a00002020000020200000e1
:1019e000206300003a20000044690000737000008a
:1019f0006c610000790d00000a200000202000002a
:101a000020200000643a0000204100006c610000ca
:101a1000726d0000204300006c75000073740000bc
:101a200065720000204300006f6d00006d610000d2
:101a30006e640000730d00000a20000020200000ea
:101a400020200000653a000020470000726f00006f
:101a50007570000073200000436c00007573000077
:101a60007465000072200000436f00006d6d00007f
:101a7000616e0000647300000d0a00002020000069
:101a800020200000206600003a2000005363000080
:101a9000656e000065730000204300006c75000057
:101aa0007374000065720000204300006f6d000039
:101ab0006d6100006e640000730d00000a200000dc
:101ac0002020000020200000673a00002054000081
:101ad000657300007420000046720000616700001a
:101ae0006d6500006e74000061740000696f000095
:101af0006e0d00000a2000002020000020200000c1
:101b0000683a0000204c0000696e00006b20000065
:101b100053740000617400007573000020430000de
:101b20006f6d00006d6100006e64000020540000c5
:101b300065730000746900006e6700000d0a000004
:101b400009200000206d00003a2000004d530000e5
:101b500045440000434c0000204300006c75000029
:101b6000737400006572000020740000657300004b
:101b7000740d00000a090000202000006e3a0000e9
:101b800020460000696e0000642000004e750000d1
:101b90006d62000065720000206f0000662000008a
:101ba0004e6f000064650000206300006f6e00004f
:101bb0006e65000063740000656400000d0a00009b
:101bc0002020000020200000206f00003a200000ac
:101bd0004d6100006b65000020450000535000007f
:101be00020610000732000004d540000520a0000e4
:101bf0000d2000002020000020200000713a00008d
:101c00002044000069730000636f000076650000e7
:101c100072200000526f000075740000650d000016
:101c20000a2000002020000020200000703a000060
:101c3000204d0000616b0000652000004d54000045
:101c40005220000061730000204500005350000046
:101c5000207700006974000068200000476c0000d5
:101c60006f6200006c650000207300007472000059
:101c7000726900006e670000730000000d0a00002a
:101c8000456e0000746500007220000061200000b5
:101c90006d6500006e75000020630000686f000035
:101ca00069630000653a0000200000000d0a000092
:101cb000456e00007465000072200000746800002a
:101cc000652000006465000073740000696e000008
:101cd00061740000696f00006e2000006164000004
:101ce0006472000065730000732000006c610000e6
:101cf000737400002033000020620000797400003b
:101d0000657300002062000079740000653a0000ed
:101d1000000d00000a4500006e74000065720000ae
:101d20002074000068650000206c000061790000ec
:101d300065720000207400007970000065200000ca
:101d400031200000545200005545000020300000b2
:101d500020460000414c0000534500003a000000be
:101d60000a0d000049650000656500002041000083
:101d700064640000722000003d200000000a0000a2
:101d80000d0000000d0a0000456e000074650000a3
:101d90007220000074680000652000005972000085
:101da00020280000696e00002044000065630000e8
:101db000696d0000616c0000202d0000207900009a
:101dc000792900003a0000000d0a0000456e00006d
:101dd0007465000072200000746800006520000037
:101de0004d6f00006e200000286900006e2000008a
:101df00044650000636900006d6100006c20000014
:101e00002d2000006d6d0000293a0000000d00003b
:101e10000a4500006e740000657200002074000026
:101e2000686500002064000061790000202800003f
:101e3000696e00002044000065630000696d0000c9
:101e4000616c0000202d0000206400006429000067
:101e50003a0000000d0a0000456e000074650000a5
:101e600072200000746800006520000048720000c5
:101e70002028000032340000204800007273000067
:101e8000206600006f7200006d610000743a00006f
:101e9000206900006e2000004465000063690000b6
:101ea0006d6100006c2000002d20000068680000bb
:101eb000293a0000000d00000a4500006e74000081
:101ec000657200002074000068650000204d00006d
:101ed000696e000020280000696e000020440000a8
:101ee00065630000696d0000616c0000293a000024
:101ef000000d00000a4500006e74000065720000cd
:101f00002074000068650000204900007373000021
:101f10007565000072450000766500006e74000073
:101f20004964000020280000696e0000204800007d
:101f300065780000292000002834000020420000bd
:101f40007974000065730000293a0000000d00005c
:101f50000a4500006e7400006572000020740000e5
:101f600068650000204e00006577000020500000ea
:101f7000726900006365000020280000696e00009f
:101f80002048000065780000292000002834000067
:101f9000204200007974000065730000293a0000b7
:101fa000000d00000a4500006e740000657200001c
:101fb0002074000068650000205300007461000078
:101fc00072740000546900006d650000202d00004f
:101fd000205900006561000072200000286900009f
:101fe0006e20000044650000636900006d61000020
:101ff0006c2000002d20000079790000293a0000b3
:10200000000d00000a4500006e74000065720000bb
:102010002074000068650000205300007461000017
:1020200072740000546900006d650000202d0000ee
:10203000204d00006f6e0000746800002028000032
:10204000696e00002044000065630000696d0000b7
:10205000616c0000202d0000206d00006d29000043
:102060003a0000000d0a0000456e00007465000093
:1020700072200000746800006520000053740000a6
:102080006172000074540000696d0000652000005a
:102090002d20000064610000792000002869000004
:1020a0006e20000044650000636900006d6100005f
:1020b0006c2000002d20000064640000293a00001c
:1020c000000d00000a4500006e74000065720000fb
:1020d0002074000068650000205300007461000057
:1020e00072740000546900006d650000202d00002e
:1020f000204800006f7500007220000028320000a8
:10210000342000004872000073200000666f000059
:10211000726d0000617400003a200000696e0000da
:102120002044000065630000696d0000616c0000e0
:10213000202d000020680000682900003a000000ff
:102140000d0a0000456e000074650000722000005a
:102150007468000065200000537400006172000084
:1021600074540000696d0000652000002d200000ff
:102170004d6900006e7500007465000020280000a5
:10218000696e00002044000065630000696d000076
:10219000616c0000293a0000000d00000a450000b3
:1021a0006e74000065720000207400006865000015
:1021b000204400007572000061740000696f000027
:1021c0006e4900006e4d0000696e000075740000dd
:1021d0006573000020280000696e000020480000a0
:1021e000657800002920000028320000204200000d
:1021f0007974000065730000290000000d0a0000da
:10220000456e0000746500007220000074680000d4
:10221000652000005469000065720000205600002f
:10222000616c0000756500002028000066720000e7
:102230006f6d00002030000031200000746f00003e
:1022400020300000362900003a0000000d0a00008e
:10225000456e000074650000722000007468000084
:10226000652000005261000074650000204c0000f1
:1022700061620000656c0000204c0000656e00008b
:102280006774000068200000284d0000617800009d
:10229000203100003120000043680000617200001e
:1022a000616300007465000072730000292800005b
:1022b000496e0000204800006578000029200000d9
:1022c00028310000204200007974000065290000d8
:1022d0003a0000000d0a0000456e00007465000021
:1022e0007220000074680000652000005261000048
:1022f00074650000204c000061620000656c000005
:10230000203a0000000d00000a4500006e74000035
:102310006572000020740000686500002043000022
:102320006c75000073740000657200004964000061
:1023300020280000696e0000204800006578000039
:102340002920000028320000427900007465000056
:10235000732900003a0000000d0a0000456e0000dd
:1023600074650000722000007468000065200000a1
:1023700061740000747200006962000075740000ee
:102380006549000064200000286900006e200000fc
:102390004865000078290000202800003220000055
:1023a0004279000074650000732900003a000000c3
:1023b0000d0a0000456e00007465000072200000e8
:1023c0007468000065200000417400007472000011
:1023d000696200007574000065200000446100001f
:1023e000746100002054000079700000652800002e
:1023f000696e000020480000657800002920000078
:102400002831000020420000797400006529000096
:102410003a0000000d0a0000456e000074650000df
:1024200072200000746800006520000061740000e4
:10243000747200006962000075740000652000007d
:102440004461000074610000206c0000656e0000b3
:102450006774000068280000696e000020480000d2
:10246000657800002920000028310000204200008b
:1024700079740000652900003a0000000d0a000090
:10248000456e000074650000722000007468000052
:102490006520000061740000747200006962000031
:1024a0007574000065200000446100007461000044
:1024b000203a0000000d00000a4500006e74000084
:1024c0006572000020740000686500002044000070
:1024d00065730000746900006e610000746900009b
:1024e0006f6e00002041000064640000726500000f
:1024f00073730000286900006e200000486500002a
:10250000782900002838000020420000797400007b
:1025100065730000292900003a0000000d0a000040
:10252000456e0000746500007220000074680000b1
:10253000652000004465000073740000456e0000d3
:10254000647000006f6900006e7400003a000000c3
:102550000d0a0000303000003d44000069730000a7
:10256000616200006c650000204a00006f69000095
:102570006e2c000020460000463d0000456e000025
:10258000616200006c6500002c20000058580000bb
:102590003d540000696d0000656400002873000070
:1025a00065630000292000003a200000000d0000b3
:1025b0000a4500006e7400006572000020440000af
:1025c00065730000746900006e61000074690000aa
:1025d0006f6e000020530000686f000072740000ee
:1025e0002041000064640000726500007373000005
:1025f00020280000322d0000627900007465000080
:1026000073290000203a0000200000000d0a00009d
:10261000536500007420000074680000652000000d
:102620004465000073740000696e0000617400006e
:10263000696f00006e200000456e000064200000fd
:10264000506f0000696e0000742000003a20000006
:102650000044000065730000746900006e610000b2
:10266000746900006f6e0000204100006464000087
:102670007265000073730000206f00006620000088
:10268000526500007175000065730000743a000027
:10269000200000000d0a0000456e00007465000077
:1026a000722000007468000065200000646500006e
:1026b00073740000696e000061740000696f0000af
:1026c0006e20000061640000647200006573000009
:1026d000733a0000000d00000a4500006e7400000f
:1026e00065720000204300006c75000073740000e8
:1026f0006572000020490000643a000020000000dc
:102700000d0a00003030000030300000203a000098
:102710002042000061730000696300002030000067
:1027200030300000412000003a20000054690000d1
:102730006d650000000d00000a4500006e74000089
:10274000657200002074000068650000206e0000c3
:10275000756d000062650000722000006f66000069
:10276000206100007474000072690000627500004e
:102770007465000073200000746f00002062000088
:10278000652000007265000061640000203a0000ce
:10279000000d00000a4500006e7400006572000024
:1027a000207400006865000020610000747400005f
:1027b0007269000062750000746500002069000005
:1027c00064730000000d00000a0d00000a460000be
:1027d0006f72000020420000617300006963000016
:1027e000204300006c7500007374000065720000e7
:1027f0003a0000000d0a00003030000030300000c8
:102800003a20000041700000702000005665000072
:10281000720000000d0a000030300000303300006c
:102820003a200000486100007264000077610000f7
:10283000726500002056000065720000000d000067
:102840000a30000030310000303a0000204c000017
:102850006f63000061740000696f00006e2000006b
:102860004465000073630000000d00000a0d0000c5
:102870000a4600006f72000020540000696d0000dd
:1028800065200000436c0000757300007465000053
:10289000723a0000000d00000a30000030300000e5
:1028a000303a000020540000696d0000650000000f
:1028b0000d0a000030300000303100003a200000e6
:1028c000546900006d6500005374000061740000dd
:1028d00075730000000d00000a3000003030000069
:1028e000323a000020540000696d0000655a000073
:1028f0006f6e0000650000000d0a0000303000001f
:10290000303300003a20000044730000745300008c
:102910007461000072740000000d00000a300000b5
:1029200030300000343a000020440000737400008e
:10293000456e0000640000000d0a00003030000009
:10294000303500003a20000044730000745300004a
:102950006869000066740000000d00000a30000085
:1029600030300000363a000020530000746100004f
:102970006e6400006172000064540000696d000024
:10298000650000000d0a0000303000003037000004
:102990003a2000004c6f0000636100006c5400009e
:1029a000696d0000650d00000a0000000d0a0000be
:1029b000456e00007465000072200000746800001d
:1029c0006520000064650000737400002061000051
:1029d00064640000723a0000000d00000a0d00005f
:1029e0000a30000037300000322000002d200000a7
:1029f0004d65000074650000726900006e6700009c
:102a0000204300006c7500007374000065720000c4
:102a1000000d00000a3000003030000030200000bf
:102a20002d20000042610000736900006320000057
:102a3000436c0000757300007465000072000000b4
:102a40000d0a0000456e0000746500007220000051
:102a50006f6e0000652000006f66000020740000ab
:102a60006865000020610000626f0000766500006c
:102a7000204300006c750000737400006572000054
:102a8000494400003a0000000d0a00000d0a000051
:102a9000466f0000722000004d6500007465000064
:102aa000726900006e670000204300006c75000032
:102ab00073740000657200003a0000000d0a000007
:102ac0003030000030300000202d00002043000096
:102ad00075720000726500006e740000537500008e
:102ae0006d6d000061740000696f00006e440000ad
:102af000656c000069760000657200006564000086
:102b00003a0000000d0a00003031000030300000b3
:102b1000202d000020430000757200007265000047
:102b20006e740000546900006572000031530000ab
:102b3000756d00006d610000746900006f6e00002b
:102b4000446500006c690000766500007265000055
:102b5000643a0000000d00000a3000003030000030
:102b6000302000002d200000426100007369000049
:102b70006356000065720000736900006f6e00000c
:102b80003a0000000d0a0000303000003031000033
:102b9000202d000020410000707000006c690000d2
:102ba00063610000746900006f6e000056650000ec
:102bb00072730000696f00006e3a0000000d0000a3
:102bc0000a0d00000a4500006e74000065720000e6
:102bd000206f00006e650000206f0000662000007e
:102be0007468000065200000616200006f760000dc
:102bf00065200000417400007472000069620000ea
:102c00007574000065490000442000006261000006
:102c100073650000642000006f6e00002043000018
:102c20006c75000073740000657200003a000000cb
:102c30000d0a000032350000202800004375000016
:102c400072720000656e000074530000756d000024
:102c50006d610000746900006f6e00004465000043
:102c60006c69000076650000726500006420000059
:102c7000262000004375000072720000656e00009f
:102c80007454000069650000723100005375000043
:102c90006d6d000061740000696f00006e440000fb
:102ca000656c0000697600006572000065640000d4
:102cb000290000000d0a000032300000202800002a
:102cc00042610000736900006356000065720000f5
:102cd000736900006f6e0000202600002041000094
:102ce000707000006c69000063610000746900008e
:102cf0006f6e00005665000072730000696f00007f
:102d00006e290000000d00000a0d00000a450000b9
:102d10006e74000065720000206f00006e65000098
:102d2000206f00006620000074680000652000002d
:102d3000616200006f7600006520000041740000b1
:102d40007472000069620000757400006544000040
:102d5000617400006154000079700000653a000061
:102d6000000d00000a4500006e740000657200004e
:102d70002074000068650000204d0000696e0000ae
:102d8000696d0000756d0000204900006e74000040
:102d900065720000766100006c200000283200009f
:102da000204200007974000065730000293a000099
:102db000000d00000a4500006e74000065720000fe
:102dc00020760000616c000069640000204d000066
:102dd00061780000696d0000756d000020490000f9
:102de0006e74000065720000766100006c200000c7
:102df000766100006c75000065200000746f0000b3
:102e000020720000657000006f72000074200000e6
:102e10006f72000020460000464600004620000079
:102e2000746f000020530000746f000070200000d9
:102e3000616c000072650000616400007920000090
:102e400072650000706f000072740000696e00000f
:102e500067200000656e00007472000079000000b9
:102e60000d0a0000456e000074650000722000002d
:102e700074680000652000004d6100007869000062
:102e80006d7500006d200000496e00007465000043
:102e900072760000616c00002028000032200000e3
:102ea0004279000074650000732900003a000000b8
:102eb0000d0a00000d0a0000466f0000722000009d
:102ec0004d65000074650000726900006e670000c7
:102ed000204300006c7500007374000065720000f0
:102ee000202d0000203600002042000079740000f0
:102ef00065200000566100006c7500006500000050
:102f00000d0a0000466f00007220000042610000c0
:102f10007369000063200000436c000075730000bb
:102f200074650000722000002d2000003120000098
:102f3000427900007465000020560000616c0000ba
:102f400075650000000d00000a4500006e74000069
:102f500065720000207400006865000020520000c7
:102f6000657000006f72000074610000626c000008
:102f70006520000043680000616e00006765000086
:102f80003a0000000d0a0000456e00007465000064
:102f90007220000074680000652000006465000075
:102fa000737400002061000064640000722000005f
:102fb000285500006e690000636100007374000012
:102fc000206f000072200000477200006f75000043
:102fd000702900003a0000000d0a0000456e000054
:102fe00074650000722000004d6f000064650000f1
:102ff000206f00006620000054720000616e000027
:10300000736d000069730000736900006f6e00004b
:103010002028000030310000206600006f720000a0
:1030200020470000726f0000757000002c20000027
:1030300030320000206600006f7200002055000052
:103040006e6900006361000073740000293a00009b
:10305000000d00000a4500006e740000657200005b
:1030600020740000686500002045000078740000ae
:10307000656e00006465000064500000414e000071
:1030800049640000206900006e20000048650000cf
:10309000783a0000000d00000a4500006e64000050
:1030a000206f000066200000436f00006d6d00007f
:1030b00069730000736900006f6e0000696e0000a4
:1030c000672000004461000074610000204500009a
:1030d0006e74000072790000200d00000a000000ec
:1030e0000d0a0000303100003a2000005265000057
:1030f00073650000742000004375000072740000c6
:1031000020530000415300003a0000000d0a000067
:10311000303200003a200000526500007365000064
:1031200074200000416c00006c200000534100003e
:10313000533a0000000d00000a300000343a00004d
:103140002045000072610000736500002049000006
:103150006e640000657800003a0000000d0a00006f
:10316000456e000074650000722000007468000065
:10317000652000004f700000746900006f6e000051
:103180003a0000000d0a0000456e00007465000062
:103190007220000074680000652000004c6500008b
:1031a0006e2000006f66000020740000686500005b
:1031b000204d0000736700003a0000000d0a000077
:1031c000456e000074650000722000007468000005
:1031d000652000004d730000673a0000000d0000fc
:1031e0000a4500006e740000657200002074000043
:1031f000686500002054000069650000722000002e
:10320000496e0000666f0000283000003120000089
:10321000746f000020300000362900003a000000e2
:103220000d0a0000456e0000746500007220000069
:10323000746800006520000064650000737400007d
:103240002061000064640000722000006d6f0000c7
:10325000646500003a0000000d0a000030320000f2
:103260003a200000536800006f72000074200000d4
:103270004164000064720000000d00000a3000008c
:10328000333a00002045000078740000656e0000ad
:103290006465000064200000416400006472000066
:1032a0003a0000000d0a0000456e00007465000041
:1032b0007220000074680000652000006465000052
:1032c0007374000020500000414e000020490000af
:1032d00064200000283200002042000079740000c1
:1032e00065730000293a0000000d00000a45000047
:1032f0006e740000657200002074000068650000b4
:10330000204c0000656e0000206f00006620000069
:1033100074680000652000004d7300006720000005
:10332000284d0000617800002031000034200000aa
:103330004368000061720000293a0000000d00009f
:103340000a4900006e760000616c000069640000ac
:10335000204d000073670000204c0000656e0000e7
:1033600067740000680000000d0a0000456e000050
:103370007465000072200000746800006520000081
:103380005469000065720000204900006e6600006c
:103390006f3a0000000d00000a540000696500004b
:1033a000723100002830000031290000202d00007b
:1033b00020540000696500007236000028300000cb
:1033c00036290000000d00000a530000656c000063
:1033d0006563000074200000616e00007920000029
:1033e0006f6e0000652000006f6600002074000012
:1033f00068650000206f000070740000696f0000b5
:103400006e3a0000000d00000a4500006e740000d6
:10341000657200002074000068650000204700000d
:10342000726f00007570000020610000646400008d
:10343000723a0000000d00000a4500006e740000a2
:10344000657200002074000068650000204c0000d8
:10345000656e000067740000682000006f66000061
:103460002074000068650000204e0000616d0000bf
:103470006520000053740000726900006e67000050
:10348000202800003120000042790000746500000f
:10349000206900006e2000004865000078290000c7
:1034a0003a0000000d0a0000456e0000746500003f
:1034b0007220000074680000652000004e6100006a
:1034c0006d6500002053000074720000696e0000fa
:1034d00067200000284d00006178000020310000c6
:1034e0003620000043680000617200006163000044
:1034f0007465000072730000293a0000000d00009e
:103500000a4500006e74000065720000207400001f
:103510006865000020470000726f000075700000b1
:10352000204300006f7500006e740000202800002a
:10353000312000004279000074650000293a000043
:10354000000d00000a4500006e7400006572000066
:103550002074000068650000204c000069730000c2
:10356000742000006f66000020470000726f0000aa
:103570007570000020410000646400007265000066
:103580007373000065730000203a0000000d000016
:103590000a4500006e74000065720000207400008f
:1035a0006865000020470000726f00007570000021
:1035b0002049000044200000283200002042000082
:1035c00079740000652900003a0000000d0a00002f
:1035d000456e0000746500007220000074680000f1
:1035e0006520000053630000656e00006520000048
:1035f00049440000202800003120000042790000ea
:1036000074650000293a0000000d00000a45000022
:103610006e74000065720000207400006865000090
:1036200020540000726100006e7300006974000095
:10363000696f00006e200000546900006d65000095
:10364000202800003220000042790000746500004c
:10365000732900003a0000000d0a0000456e0000ca
:10366000746500007220000074680000652000008e
:103670004c6500006e67000074680000206f000059
:10368000662000007468000065200000536300009d
:10369000656e0000652000004e6100006d65000051
:1036a0002028000031200000746f0000203100004d
:1036b000362900003a0000000d0a0000456e0000a7
:1036c000746500007220000074680000652000002e
:1036d0004e7500006d62000065720000206f0000f2
:1036e0006620000045780000746500006e730000dd
:1036f000696f00006e20000046690000656c0000e4
:10370000647300002072000065710000756900009c
:1037100072650000643a0000000d00000a450000d8
:103720006e7400006572000020740000686500007f
:10373000204300006c750000737400006572000087
:10374000494400003a0000000d0a0000456e0000e8
:10375000746500007220000074680000652000009d
:103760004c6500006e670000746800003a000000bd
:103770000d0a0000456e0000746500007220000014
:103780007468000065200000457800007465000042
:103790006e730000696f00006e2000004669000033
:1037a000656c000064200000566100006c7500002c
:1037b000657300003a0000000d0a0000456e00002d
:1037c000746500007220000074680000652000002d
:1037d000477200006f75000070200000494400002f
:1037e0002832000020420000797400006573000058
:1037f000293a0000000d00000a4500006e74000028
:10380000657200002074000068650000205300000d
:10381000636500006e650000204900004428000038
:10382000312000004279000074650000293a000050
:10383000000d00000a4500006e7400006572000073
:1038400020740000686500002041000074740000ce
:103850007269000062750000746500002049000074
:10386000440000000d0a000030300000313100003b
:103870003a2000004f63000063750000706900008b
:1038800065640000436f00006f6c0000696e00000b
:103890006753000065740000506f0000696e0000ff
:1038a000740000000d0a00003030000031320000ca
:1038b0003a2000004f63000063750000706900004b
:1038c000656400004865000061740000696e0000d6
:1038d0006753000065740000506f0000696e0000bf
:1038e000740000000d0a0000303000003143000079
:1038f0003a2000005379000073740000656d0000e9
:103900004d6f000064650000000d00000a530000c8
:10391000656c00006563000074200000616e0000ab
:10392000792000006f6600002074000068650000c8
:1039300020610000626f000076650000206f0000cb
:1039400072200000616e0000792000006f660000a8
:10395000207900006f75000072200000636800008d
:103960006f690000636500003a0000000d0a000066
:10397000456e00007465000072200000746800004d
:1039800065200000436c0000757300007465000042
:103990007220000049440000000d00000a300000c1
:1039a00032300000312000002d200000666f000042
:1039b0007220000054680000657200006d6f000006
:1039c0007374000061740000204300006c750000f7
:1039d0007374000065720000000d00000a530000bf
:1039e000656c0000656300007420000074680000ce
:1039f00065200000616200006f7600006520000015
:103a00006f720000206100006e790000206f0000de
:103a100066200000796f00007572000020630000ce
:103a2000686f000069630000653a0000000d000047
:103a30000a530000455100005f4d0000455400004e
:103a4000455200005f4900004e4600004f5f0000f5
:103a5000434d0000445f0000534500005249000000
:103a6000414c00005f4e0000554d000042450000f3
:103a7000520900000909000009090000093000008e
:103a800030300000300000000d0a000053450000f7
:103a9000515f00004d45000054450000525f00009a
:103aa000494e0000464f00005f4300004d440000b7
:103ab0005f4d0000414b0000455f0000434f000098
:103ac0004445000009090000090900000909000037
:103ad0000930000030300000310000000d0a000005
:103ae00053450000515f0000434f00004d5500005a
:103af0005f4100004354000049560000455f00004c
:103b0000454e000045520000475900005f43000049
:103b10004d4400005f4300004f4d0000555f000022
:103b20004143000054490000564500005f45000035
:103b30004e450000524700005909000009300000be
:103b400031300000300000000d0a00005345000035
:103b5000515f0000434f00004d5500005f410000e1
:103b60004354000049560000455f0000454e0000e8
:103b700045520000475900005f4300004d440000db
:103b80005f4300004f4d0000555f000041430000bf
:103b900054490000564500005f4500004e450000b6
:103ba00052470000595f00004d3100000909000034
:103bb0003031000030310000000d00000a530000d9
:103bc000455100005f4300004f4d0000555f00006d
:103bd0004143000054490000564500005f45000085
:103be0004e45000052470000595f0000434d000061
:103bf000445f0000434f00004d5500005f4100004e
:103c00004354000049560000455f0000454e000047
:103c100045520000475900005f4d00003209000086
:103c20000930000031300000320000000d0a0000b1
:103c300053450000515f0000434f00004d55000008
:103c40005f4100004354000049560000455f0000fa
:103c5000454e000045520000475900005f430000f8
:103c60004d4400005f4300004f4d0000555f0000d1
:103c70004143000054490000564500005f450000e4
:103c80004e45000052470000595f00004d330000d0
:103c9000090900003031000030330000000d000041
:103ca0000a530000455100005f4300004f4d0000e3
:103cb000555f000041430000544900005645000094
:103cc0005f4500004e45000052470000595f00006c
:103cd000434d0000445f0000434f00004d5500007d
:103ce0005f4100004354000049560000455f00005a
:103cf000454e000045520000475900005f4d00004e
:103d000034090000093000003130000034000000a8
:103d10000d0a000053450000515f0000434f0000b2
:103d20004d5500005f41000043540000495600001b
:103d3000455f0000454e0000455200004759000015
:103d40005f4300004d4400005f4300004f4d000002
:103d5000555f0000414300005449000056450000f3
:103d60005f4500004e45000052470000595f0000cb
:103d70004d350000090900003031000030350000e9
:103d8000000d00000a530000455100005f43000091
:103d90004f4d0000555f00004143000054490000b2
:103da000564500005f4500004e45000052470000a8
:103db000595f0000434d0000445f0000434f000086
:103dc0004d5500005f41000043540000495600007b
:103dd000455f0000454e0000455200004759000075
:103de0005f4d00003609000009300000313000004e
:103df000360000000d0a000053450000515f00002e
:103e00004d410000585f0000444500004d41000056
:103e10004e4400005f4300004d4400005f4d000031
:103e2000415800005f440000454d0000414e000035
:103e3000445f0000435500005209000009090000da
:103e4000090900003032000030300000000d000091
:103e50000a530000455100005f4d0000415800002a
:103e60005f440000454d0000414e0000445f0000eb
:103e7000434d0000445f00004d410000585f0000ca
:103e8000444500004d4100004e4400005f430000e7
:103e9000555200005f540000494d000045090000e4
:103ea0000909000009300000323000003100000034
:103eb0000d0a000053450000515f00004d41000015
:103ec000585f0000444500004d4100004e44000092
:103ed0005f4300004d4400005f4d0000415800006a
:103ee0005f440000454d0000414e0000445f00006b
:103ef0004d3100000909000009090000090900000e
:103f00003032000030320000000d00000a53000083
:103f1000455100005f4d0000415800005f44000023
:103f2000454d0000414e0000445f0000434d00003d
:103f3000445f00004d410000585f00004445000010
:103f40004d4100004e4400005f4d0000315f000015
:103f5000544900004d45000009090000090900000e
:103f60003032000030330000000d00000a53000022
:103f7000455100005f4d0000415800005f440000c3
:103f8000454d0000414e0000445f0000434d0000dd
:103f9000445f00004d410000585f000044450000b0
:103fa0004d4100004e4400005f4d0000320900000a
:103fb0000909000009090000093000003230000042
:103fc000340000000d0a000053450000515f00005e
:103fd0004d410000585f0000444500004d41000085
:103fe0004e4400005f4300004d4400005f4d000060
:103ff000415800005f440000454d0000414e000064
:10400000445f00004d3200005f540000494d000045
:1040100045090000090900000930000032300000a5
:10402000350000000d0a000053450000515f0000fc
:104030004d410000585f0000444500004d41000024
:104040004e4400005f4300004d4400005f4d0000ff
:10405000415800005f440000454d0000414e000003
:10406000445f00004d330000090900000909000009
:10407000090900003032000030360000000d000059
:104080000a530000455100005f4d000041580000f8
:104090005f440000454d0000414e0000445f0000b9
:1040a000434d0000445f00004d410000585f000098
:1040b000444500004d4100004e4400005f4d0000ab
:1040c000335f0000544900004d450000090900001d
:1040d000090900003032000030370000000d0000f8
:1040e0000a530000455100005f4d00004158000098
:1040f0005f440000454d0000414e0000445f000059
:10410000434d0000445f00004d410000585f000037
:10411000444500004d4100004e4400005f4d00004a
:1041200034090000090900000909000009300000f5
:1041300032300000380000000d0a00005345000036
:10414000515f00004d410000585f000044450000f1
:104150004d4100004e4400005f4300004d4400000c
:104160005f4d0000415800005f440000454d0000d5
:10417000414e0000445f00004d3400005f540000d9
:10418000494d000045090000090900000930000000
:1041900032300000390000000d0a000053450000d5
:1041a000515f00004d410000585f00004445000091
:1041b0004d4100004e4400005f4300004d440000ac
:1041c0005f4d0000415800005f440000454d000075
:1041d000414e0000445f00004d3500000909000019
:1041e00009090000090900003032000030610000b8
:1041f000000d00000a530000455100005f4d000013
:10420000415800005f440000454d0000414e000051
:10421000445f0000434d0000445f00004d4100003a
:10422000585f0000444500004d4100004e4400002e
:104230005f4d0000355f0000544900004d4500000f
:104240000909000009090000303200003062000056
:10425000000d00000a530000455100005f4d0000b2
:10426000415800005f440000454d0000414e0000f1
:10427000445f0000434d0000445f00004d410000da
:10428000585f0000444500004d4100004e440000ce
:104290005f4d00003609000009090000090900000f
:1042a0000930000032300000630000000d0a0000f9
:1042b00053450000515f00004d410000585f000071
:1042c000444500004d4100004e4400005f430000a3
:1042d0004d4400005f4d0000415800005f44000065
:1042e000454d0000414e0000445f00004d36000087
:1042f0005f540000494d0000450900000909000015
:104300000930000032300000640000000d0a000097
:1043100053450000515f0000544100004d50000023
:10432000455200005f4900004e4600004f5f00000c
:10433000434d0000445f0000544100004d50000018
:10434000455200005f520000505f0000524e0000d6
:104350005f530000545f00003109000009090000ac
:104360000930000033300000300000000d0a00006a
:1043700053450000515f0000544100004d500000c3
:10438000455200005f4900004e4600004f5f0000ac
:10439000434d0000445f0000544100004d500000b8
:1043a000455200005f520000505f0000524e000076
:1043b0005f530000505f0000310900000909000050
:1043c0000930000033310000300000000d0a000009
:1043d00053450000515f0000544100004d50000063
:1043e000455200005f4900004e4600004f5f00004c
:1043f000434d0000445f0000544100004d50000058
:10440000455200005f520000505f0000524e000015
:104410005f530000545f00003209000009090000ea
:104420000930000033300000310000000d0a0000a8
:1044300053450000515f0000544100004d50000002
:10444000455200005f4900004e4600004f5f0000eb
:10445000434d0000445f0000544100004d500000f7
:10446000455200005f520000505f0000524e0000b5
:104470005f530000505f000032090000090900008e
:104480000930000033310000310000000d0a000047
:1044900053450000515f0000544100004d500000a2
:1044a000455200005f4900004e4600004f5f00008b
:1044b000434d0000445f0000544100004d50000097
:1044c000455200005f520000505f0000524e000055
:1044d0005f530000545f0000330900000909000029
:1044e0000930000033300000320000000d0a0000e7
:1044f00053450000515f0000544100004d50000042
:10450000455200005f4900004e4600004f5f00002a
:10451000434d0000445f0000544100004d50000036
:10452000455200005f520000505f0000524e0000f4
:104530005f530000505f00003309000009090000cc
:104540000930000033310000320000000d0a000085
:1045500053450000515f0000544100004d500000e1
:10456000455200005f4900004e4600004f5f0000ca
:10457000434d0000445f0000544100004d500000d6
:10458000455200005f520000505f0000524e000094
:104590005f530000545f0000340900000909000067
:1045a0000930000033300000330000000d0a000025
:1045b00053450000515f0000544100004d50000081
:1045c000455200005f4900004e4600004f5f00006a
:1045d000434d0000445f0000544100004d50000076
:1045e000455200005f520000505f0000524e000034
:1045f0005f530000505f000034090000090900000b
:104600000930000033310000330000000d0a0000c3
:1046100053450000515f0000544100004d50000020
:10462000455200005f4900004e4600004f5f000009
:10463000434d0000445f0000544100004d50000015
:10464000455200005f520000505f0000524e0000d3
:104650005f530000545f00003509000009090000a5
:104660000930000033300000340000000d0a000063
:1046700053450000515f0000544100004d500000c0
:10468000455200005f4900004e4600004f5f0000a9
:10469000434d0000445f0000544100004d500000b5
:1046a000455200005f520000505f0000524e000073
:1046b0005f530000505f0000350900000909000049
:1046c0000930000033310000340000000d0a000002
:1046d00053450000515f0000544100004d50000060
:1046e000455200005f4900004e4600004f5f000049
:1046f000434d0000445f0000544100004d50000055
:10470000455200005f520000505f0000524e000012
:104710005f530000545f00003609000009090000e3
:104720000930000033300000350000000d0a0000a1
:1047300053450000515f0000544100004d500000ff
:10474000455200005f4900004e4600004f5f0000e8
:10475000434d0000445f0000544100004d500000f4
:10476000455200005f520000505f0000524e0000b2
:104770005f530000505f0000360900000909000087
:104780000930000033310000350000000d0a000040
:1047900053450000515f0000544100004d5000009f
:1047a000455200005f4900004e4600004f5f000088
:1047b000434d0000445f0000544100004d50000094
:1047c000455200005f520000505f0000524e000052
:1047d0005f530000545f0000370900000909000022
:1047e0000930000033300000360000000d0a0000e0
:1047f00053450000515f0000544100004d5000003f
:10480000455200005f4900004e4600004f5f000027
:10481000434d0000445f0000544100004d50000033
:10482000455200005f520000505f0000524e0000f1
:104830005f530000505f00003709000009090000c5
:104840000930000033310000360000000d0a00007e
:1048500053450000515f0000544100004d500000de
:10486000455200005f4900004e4600004f5f0000c7
:10487000434d0000445f0000544100004d500000d3
:10488000455200005f520000505f0000524e000091
:104890005f530000545f0000380900000909000060
:1048a0000930000033300000370000000d0a00001e
:1048b00053450000515f0000544100004d5000007e
:1048c000455200005f4900004e4600004f5f000067
:1048d000434d0000445f0000544100004d50000073
:1048e000455200005f520000505f0000524e000031
:1048f0005f530000505f0000380900000909000004
:104900000930000033310000370000000d0a0000bc
:1049100053450000515f0000544100004d5000001d
:10492000455200005f4900004e4600004f5f000006
:10493000434d0000445f0000544100004d50000012
:10494000455200005f520000505f0000524e0000d0
:104950005f530000545f000039090000090900009e
:104960000930000033300000380000000d0a00005c
:1049700053450000515f0000544100004d500000bd
:10498000455200005f4900004e4600004f5f0000a6
:10499000434d0000445f0000544100004d500000b2
:1049a000455200005f520000505f0000524e000070
:1049b0005f530000505f0000390900000909000042
:1049c0000930000033310000380000000d0a0000fb
:1049d00053450000515f0000544100004d5000005d
:1049e000455200005f4900004e4600004f5f000046
:1049f000434d0000445f0000544100004d50000052
:104a0000455200005f520000505f0000524e00000f
:104a10005f530000545f00003130000009090000be
:104a2000090900003033000030390000000d00009b
:104a30000a530000455100005f540000414d000042
:104a400050450000525f0000494e0000464f0000f4
:104a50005f4300004d4400005f540000414d0000e2
:104a600050450000525f0000525000005f520000ad
:104a70004e5f0000535000005f310000300900001d
:104a8000090900000930000033310000390000003e
:104a90000d0a000053450000515f00005441000022
:104aa0004d500000455200005f4900004e46000096
:104ab0004f5f0000434d0000445f00005441000080
:104ac0004d500000455200005f4c0000455f000063
:104ad000535400005f31000009090000090900007b
:104ae0000930000033320000300000000d0a0000e1
:104af00053450000515f0000544100004d5000003c
:104b0000455200005f4900004e4600004f5f000024
:104b1000434d0000445f0000544100004d50000030
:104b2000455200005f4c0000455f000053500000fc
:104b30005f31000009090000090900000930000088
:104b400033330000300000000d0a00005345000020
:104b5000515f0000544100004d50000045520000dc
:104b60005f4900004e4600004f5f0000434d0000cb
:104b7000445f0000544100004d50000045520000c9
:104b80005f4c0000455f0000535400005f3200009e
:104b90000909000009090000093000003332000053
:104ba000310000000d0a000053450000515f000075
:104bb000544100004d500000455200005f49000084
:104bc0004e4600004f5f0000434d0000445f000070
:104bd000544100004d500000455200005f4c000061
:104be000455f0000535000005f32000009090000db
:104bf00009090000093000003333000031000000d3
:104c00000d0a000053450000515f000054410000b0
:104c10004d500000455200005f4900004e46000024
:104c20004f5f0000434d0000445f0000544100000e
:104c30004d500000455200005f4c0000455f0000f1
:104c4000535400005f330000090900000909000007
:104c50000930000033320000320000000d0a00006d
:104c600053450000515f0000544100004d500000ca
:104c7000455200005f4900004e4600004f5f0000b3
:104c8000434d0000445f0000544100004d500000bf
:104c9000455200005f4c0000455f0000535000008b
:104ca0005f33000009090000090900000930000015
:104cb00033330000320000000d0a000053450000ad
:104cc000515f0000544100004d500000455200006b
:104cd0005f4900004e4600004f5f0000434d00005a
:104ce000445f0000544100004d5000004552000058
:104cf0005f4c0000455f0000535400005f3400002b
:104d000009090000090900000930000033320000e1
:104d1000330000000d0a000053450000515f000001
:104d2000544100004d500000455200005f49000012
:104d30004e4600004f5f0000434d0000445f0000fe
:104d4000544100004d500000455200005f4c0000ef
:104d5000455f0000535000005f3400000909000067
:104d6000090900000930000033330000330000005f
:104d70000d0a000053450000515f0000544100003f
:104d80004d500000455200005f4900004e460000b3
:104d90004f5f0000434d0000445f0000544100009d
:104da0004d500000455200005f4c0000455f000080
:104db000535400005f350000090900000909000094
:104dc0000930000033320000340000000d0a0000fa
:104dd00053450000515f0000544100004d50000059
:104de000455200005f4900004e4600004f5f000042
:104df000434d0000445f0000544100004d5000004e
:104e0000455200005f4c0000455f00005350000019
:104e10005f350000090900000909000009300000a1
:104e200033330000340000000d0a00005345000039
:104e3000515f0000544100004d50000045520000f9
:104e40005f4900004e4600004f5f0000434d0000e8
:104e5000445f0000544100004d50000045520000e6
:104e60005f4c0000455f0000535400005f360000b7
:104e70000909000009090000093000003332000070
:104e8000350000000d0a000053450000515f00008e
:104e9000544100004d500000455200005f490000a1
:104ea0004e4600004f5f0000434d0000445f00008d
:104eb000544100004d500000455200005f4c00007e
:104ec000455f0000535000005f36000009090000f4
:104ed00009090000093000003333000035000000ec
:104ee0000d0a000053450000515f000054410000ce
:104ef0004d500000455200005f4900004e46000042
:104f00004f5f0000434d0000445f0000544100002b
:104f10004d500000455200005f4c0000455f00000e
:104f2000535400005f370000090900000909000020
:104f30000930000033320000360000000d0a000086
:104f400053450000515f0000544100004d500000e7
:104f5000455200005f4900004e4600004f5f0000d0
:104f6000434d0000445f0000544100004d500000dc
:104f7000455200005f4c0000455f000053500000a8
:104f80005f3700000909000009090000093000002e
:104f900033330000360000000d0a000053450000c6
:104fa000515f0000544100004d5000004552000088
:104fb0005f4900004e4600004f5f0000434d000077
:104fc000445f0000544100004d5000004552000075
:104fd0005f4c0000455f0000535400005f38000044
:104fe00009090000090900000930000033320000ff
:104ff000370000000d0a000053450000515f00001b
:10500000544100004d500000455200005f4900002f
:105010004e4600004f5f0000434d0000445f00001b
:10502000544100004d500000455200005f4c00000c
:10503000455f0000535000005f3800000909000080
:105040000909000009300000333300003700000078
:105050000d0a000053450000515f0000544100005c
:105060004d500000455200005f4900004e460000d0
:105070004f5f0000434d0000445f000054410000ba
:105080004d500000455200005f4c0000455f00009d
:10509000535400005f3900000909000009090000ad
:1050a0000930000033320000380000000d0a000013
:1050b00053450000515f0000544100004d50000076
:1050c000455200005f4900004e4600004f5f00005f
:1050d000434d0000445f0000544100004d5000006b
:1050e000455200005f4c0000455f00005350000037
:1050f0005f390000090900000909000009300000bb
:1051000033330000380000000d0a00005345000052
:10511000515f0000544100004d5000004552000016
:105120005f4900004e4600004f5f0000434d000005
:10513000445f0000544100004d5000004552000003
:105140005f4c0000455f0000535400005f310000d9
:10515000300900000909000009090000303300008f
:1051600032390000000d00000a53000045510000d4
:105170005f540000414d000050450000525f0000a8
:10518000494e0000464f00005f4300004d440000c0
:105190005f540000414d000050450000525f000088
:1051a0004c4500005f530000505f000031300000ac
:1051b000090900000909000009300000333300002c
:1051c000390000000d0a000053450000515f000047
:1051d000544100004d500000455200005f4900005e
:1051e0004e4600004f5f0000434d0000445f00004a
:1051f000544100004d500000455200005f4e000039
:10520000445f0000535400005f31000009090000b2
:1052100009090000093000003334000030000000ac
:105220000d0a000053450000515f0000544100008a
:105230004d500000455200005f4900004e460000fe
:105240004f5f0000434d0000445f000054410000e8
:105250004d500000455200005f4e0000445f0000ca
:10526000535000005f3100000909000009090000e7
:105270000930000033350000300000000d0a000046
:1052800053450000515f0000544100004d500000a4
:10529000455200005f4900004e4600004f5f00008d
:1052a000434d0000445f0000544100004d50000099
:1052b000455200005f4e0000445f00005354000060
:1052c0005f320000090900000909000009300000f0
:1052d00033340000310000000d0a00005345000087
:1052e000515f0000544100004d5000004552000045
:1052f0005f4900004e4600004f5f0000434d000034
:10530000445f0000544100004d5000004552000031
:105310005f4e0000445f0000535000005f32000009
:1053200009090000090900000930000033350000b8
:10533000310000000d0a000053450000515f0000dd
:10534000544100004d500000455200005f490000ec
:105350004e4600004f5f0000434d0000445f0000d8
:10536000544100004d500000455200005f4e0000c7
:10537000445f0000535400005f330000090900003f
:105380000909000009300000333400003200000039
:105390000d0a000053450000515f00005441000019
:1053a0004d500000455200005f4900004e4600008d
:1053b0004f5f0000434d0000445f00005441000077
:1053c0004d500000455200005f4e0000445f000059
:1053d000535000005f330000090900000909000074
:1053e0000930000033350000320000000d0a0000d3
:1053f00053450000515f0000544100004d50000033
:10540000455200005f4900004e4600004f5f00001b
:10541000434d0000445f0000544100004d50000027
:10542000455200005f4e0000445f000053540000ee
:105430005f3400000909000009090000093000007c
:1054400033340000330000000d0a00005345000013
:10545000515f0000544100004d50000045520000d3
:105460005f4900004e4600004f5f0000434d0000c2
:10547000445f0000544100004d50000045520000c0
:105480005f4e0000445f0000535000005f34000096
:105490000909000009090000093000003335000047
:1054a000330000000d0a000053450000515f00006a
:1054b000544100004d500000455200005f4900007b
:1054c0004e4600004f5f0000434d0000445f000067
:1054d000544100004d500000455200005f4e000056
:1054e000445f0000535400005f35000009090000cc
:1054f00009090000093000003334000034000000c6
:105500000d0a000053450000515f000054410000a7
:105510004d500000455200005f4900004e4600001b
:105520004f5f0000434d0000445f00005441000005
:105530004d500000455200005f4e0000445f0000e7
:10554000535000005f350000090900000909000000
:105550000930000033350000340000000d0a00005f
:1055600053450000515f0000544100004d500000c1
:10557000455200005f4900004e4600004f5f0000aa
:10558000434d0000445f0000544100004d500000b6
:10559000455200005f4e0000445f0000535400007d
:1055a0005f36000009090000090900000930000009
:1055b00033340000350000000d0a000053450000a0
:1055c000515f0000544100004d5000004552000062
:1055d0005f4900004e4600004f5f0000434d000051
:1055e000445f0000544100004d500000455200004f
:1055f0005f4e0000445f0000535000005f36000023
:1056000009090000090900000930000033350000d5
:10561000350000000d0a000053450000515f0000f6
:10562000544100004d500000455200005f49000009
:105630004e4600004f5f0000434d0000445f0000f5
:10564000544100004d500000455200005f4e0000e4
:10565000445f0000535400005f3700000909000058
:105660000909000009300000333400003600000052
:105670000d0a000053450000515f00005441000036
:105680004d500000455200005f4900004e460000aa
:105690004f5f0000434d0000445f00005441000094
:1056a0004d500000455200005f4e0000445f000076
:1056b000535000005f37000009090000090900008d
:1056c0000930000033350000360000000d0a0000ec
:1056d00053450000515f0000544100004d50000050
:1056e000455200005f4900004e4600004f5f000039
:1056f000434d0000445f0000544100004d50000045
:10570000455200005f4e0000445f0000535400000b
:105710005f38000009090000090900000930000095
:1057200033340000370000000d0a0000534500002c
:10573000515f0000544100004d50000045520000f0
:105740005f4900004e4600004f5f0000434d0000df
:10575000445f0000544100004d50000045520000dd
:105760005f4e0000445f0000535000005f380000af
:105770000909000009090000093000003335000064
:10578000370000000d0a000053450000515f000083
:10579000544100004d500000455200005f49000098
:1057a0004e4600004f5f0000434d0000445f000084
:1057b000544100004d500000455200005f4e000073
:1057c000445f0000535400005f39000009090000e5
:1057d00009090000093000003334000038000000df
:1057e0000d0a000053450000515f000054410000c5
:1057f0004d500000455200005f4900004e46000039
:105800004f5f0000434d0000445f00005441000022
:105810004d500000455200005f4e0000445f000004
:10582000535000005f390000090900000909000019
:105830000930000033350000380000000d0a000078
:1058400053450000515f0000544100004d500000de
:10585000455200005f4900004e4600004f5f0000c7
:10586000434d0000445f0000544100004d500000d3
:10587000455200005f4e0000445f0000535400009a
:105880005f3100003009000009090000090900002b
:105890003033000034390000000d00000a530000ce
:1058a000455100005f540000414d0000504500008c
:1058b000525f0000494e0000464f00005f43000069
:1058c0004d4400005f540000414d00005045000071
:1058d000525f00004e4400005f530000505f000024
:1058e00031300000090900000909000009300000fa
:1058f00033350000390000000d0a00005345000058
:10590000515f0000544100004d500000455200001e
:105910005f4900004e4600004f5f0000434d00000d
:10592000445f0000544100004d500000455200000b
:105930005f4d0000545f0000535400005f310000d1
:105940000909000009090000093000003336000091
:10595000300000000d0a000053450000515f0000b8
:10596000544100004d500000455200005f490000c6
:105970004e4600004f5f0000434d0000445f0000b2
:10598000544100004d500000455200005f4d0000a2
:10599000545f0000535000005f310000090900000f
:1059a0000909000009300000333700003000000012
:1059b0000d0a000053450000515f000054410000f3
:1059c0004d500000455200005f4900004e46000067
:1059d0004f5f0000434d0000445f00005441000051
:1059e0004d500000455200005f4d0000545f000024
:1059f000535400005f32000009090000090900004b
:105a00000930000033360000310000000d0a0000ac
:105a100053450000515f0000544100004d5000000c
:105a2000455200005f4900004e4600004f5f0000f5
:105a3000434d0000445f0000544100004d50000001
:105a4000455200005f4d0000545f000053500000bd
:105a50005f32000009090000090900000930000058
:105a600033370000310000000d0a000053450000ec
:105a7000515f0000544100004d50000045520000ad
:105a80005f4900004e4600004f5f0000434d00009c
:105a9000445f0000544100004d500000455200009a
:105aa0005f4d0000545f0000535400005f3300005e
:105ab0000909000009090000093000003336000020
